:020000040000fa
:080000000002040000000000f2
:020000040000fa
:04000800f6030000fb
:020000040000fa
:04000c0038040000b4
:020000040000fa
:040010009804000050
:020000040000fa
:0400140016040000ce
:020000040000fa
:040018005804000088
:020000040000fa
:04001c007804000064
:020000040000fa
:04002000b804000020
:020000040000fa
:04002400e4040000f0
:020000040000fa
:04002800e4040000ec
:020000040000fa
:04002c00e4040000e8
:020000040000fa
:04003000e4040000e4
:020000040000fa
:04003400e4040000e0
:020000040000fa
:04003800e4040000dc
:020000040000fa
:04003c00e4040000d8
:020000040000fa
:04004000e4040000d4
:020000040000fa
:04004400e4040000d0
:020000040000fa
:04004800e4040000cc
:020000040000fa
:04004c00e4040000c8
:020000040000fa
:04005000e4040000c4
:020000040000fa
:040054007403000031
:020000040000fa
:04005800120300008f
:020000040000fa
:04005c00e4040000b8
:020000040000fa
:04006000e4040000b4
:020000040000fa
:04006400e4040000b0
:020000040000fa
:04006800e4040000ac
:020000040000fa
:04006c00e4040000a8
:020000040000fa
:04007000e4040000a4
:020000040000fa
:04007400e4040000a0
:020000040000fa
:04007800e40400009c
:020000040000fa
:04007c00e404000098
:020000040000fa
:04008000e404000094
:020000040000fa
:04008400e404000090
:020000040000fa
:04008800e40400008c
:020000040000fa
:04008c00e404000088
:020000040000fa
:04009000e404000084
:020000040000fa
:04009400e404000080
:020000040000fa
:04009800e40400007c
:020000040000fa
:04009c00e404000078
:020000040000fa
:0400a000e404000074
:020000040000fa
:0400a400e404000070
:020000040000fa
:0400a800e40400006c
:020000040000fa
:0400ac00e404000068
:020000040000fa
:0400b000e404000064
:020000040000fa
:0400b400e404000060
:020000040000fa
:0400b800e40400005c
:020000040000fa
:0400bc00e404000058
:020000040000fa
:0400c000e404000054
:020000040000fa
:0400c400e404000050
:020000040000fa
:0400c800e40400004c
:020000040000fa
:0400cc00e404000048
:020000040000fa
:0400d000e404000044
:020000040000fa
:0400d400e404000040
:020000040000fa
:0400d800e40400003c
:020000040000fa
:0400dc00e404000038
:020000040000fa
:0400e000e404000034
:020000040000fa
:0400e400e404000030
:020000040000fa
:0400e800e40400002c
:020000040000fa
:0400ec00e404000028
:020000040000fa
:0400f000e404000024
:020000040000fa
:0400f400e404000020
:020000040000fa
:0400f800e40400001c
:020000040000fa
:0400fc00e404000018
:020000040000fa
:04010000e404000013
:020000040000fa
:04010400e40400000f
:020000040000fa
:04010800e40400000b
:020000040000fa
:04010c00e404000007
:020000040000fa
:04011000e404000003
:020000040000fa
:04011400e4040000ff
:020000040000fa
:04011800e4040000fb
:020000040000fa
:04011c00e4040000f7
:020000040000fa
:04012000e4040000f3
:020000040000fa
:04012400e4040000ef
:020000040000fa
:04012800e4040000eb
:020000040000fa
:04012c00e0030000ec
:020000040000fa
:04013000e4040000e3
:020000040000fa
:04013400e4040000df
:020000040000fa
:04013800e4040000db
:020000040000fa
:04013c00e4040000d7
:020000040000fa
:04014000e4040000d3
:020000040000fa
:04014400e4040000cf
:020000040000fa
:04014800e4040000cb
:020000040000fa
:04014c00e4040000c7
:020000040000fa
:04015000e4040000c3
:020000040000fa
:04015400e4040000bf
:020000040000fa
:04015800e4040000bb
:020000040000fa
:04015c00e4040000b7
:020000040000fa
:04016000e4040000b3
:020000040000fa
:04016400e4040000af
:020000040000fa
:04016800e4040000ab
:020000040000fa
:04016c00e4040000a7
:020000040000fa
:04017000e4040000a3
:020000040000fa
:04017400e40400009f
:020000040000fa
:04017800e40400009b
:020000040000fa
:04017c00e404000097
:020000040000fa
:04018000e404000093
:020000040000fa
:04018400e40400008f
:020000040000fa
:04018800e40400008b
:020000040000fa
:04018c00e404000087
:020000040000fa
:04019000e404000083
:020000040000fa
:04019400e40400007f
:020000040000fa
:04019800e40400007b
:020000040000fa
:04019c00e404000077
:020000040000fa
:0401a000e404000073
:020000040000fa
:0401a400e40400006f
:020000040000fa
:0401a800e40400006b
:020000040000fa
:0401ac00e404000067
:020000040000fa
:0401b000e404000063
:020000040000fa
:0401b400e40400005f
:020000040000fa
:0401b800e40400005b
:020000040000fa
:0401bc00e404000057
:020000040000fa
:0401c000e404000053
:020000040000fa
:0401c400e40400004f
:020000040000fa
:0401c800e40400004b
:020000040000fa
:0401cc00e404000047
:020000040000fa
:0401d000e404000043
:020000040000fa
:0401d400e40400003f
:020000040000fa
:0401d800e40400003b
:020000040000fa
:0401dc00e404000037
:020000040000fa
:0401e000e404000033
:020000040000fa
:0401e400e40400002f
:020000040000fa
:0401e800e40400002b
:020000040000fa
:0401ec00e404000027
:020000040000fa
:0401f000e404000023
:020000040000fa
:0401f400e40400001f
:020000040000fa
:0401f800e40400001b
:020000040000fa
:0401fc00e404000017
:020000040000fa
:04020000e404000012
:020000040000fa
:04020400e40400000e
:020000040000fa
:04020800e40400000a
:020000040000fa
:04020c00e404000006
:020000040000fa
:04021000e404000002
:020000040000fa
:04021400e4040000fe
:020000040000fa
:04021800e4040000fa
:020000040000fa
:04021c00e4040000f6
:020000040000fa
:04022000e4040000f2
:020000040000fa
:04022400e4040000ee
:020000040000fa
:04022800e4040000ea
:020000040000fa
:04022c00e4040000e6
:020000040000fa
:04023000e4040000e2
:020000040000fa
:04023400e4040000de
:020000040000fa
:04023800e4040000da
:020000040000fa
:04023c00e4040000d6
:020000040000fa
:04024000e4040000d2
:020000040000fa
:04024400e4040000ce
:020000040000fa
:04024800e4040000ca
:020000040000fa
:04024c00e4040000c6
:020000040000fa
:04025000e4040000c2
:020000040000fa
:04025400e4040000be
:020000040000fa
:04025800e4040000ba
:020000040000fa
:04025c00e4040000b6
:020000040000fa
:04026000e4040000b2
:020000040000fa
:04026400e4040000ae
:020000040000fa
:100400004f2421000eff27000e018800000000008d
:10041000000020000000e000020032000001200087
:100420002002880014000700b80107000000e00067
:1004300003003a00607f2200010020000200370024
:100440000000200001002000810f70000100320038
:100450000f000700000020000000e0000200320052
:100460000000020000000000de2a02000000000080
:100470000040da000000fe00a00020000000e000c4
:1004800002003200002020009001880000000600d9
:10049000a1028800800478000000eb001f003700f4
:1004a000e284440054a0b4009905ba00e2844400f8
:1004b00054a0b4009906ba00e284440054a0b400e9
:1004c0000006eb00476fde00fd07b200ae018800ba
:1004d000636ce10003003a000ad801000000eb0061
:1004e0000e003700606ce10008003a00004deb00a0
:1004f0000a05e800020039003420ec000af0a000f0
:100500008b05e900f9ff3e00040037006168e10057
:10051000010032000086eb000b00070019c7ba008b
:100520000e04e0001905ba0003003a000a00e000da
:10053000dbff3a0000000600fe07b200ae028800b2
:100540008a047800f5ff37000cd0a300e20f4d00bd
:100550001c00390089027800354dba000a05e80010
:10056000020039003420ec000af0a0008b05e900fd
:100570000f003200254dba000a05e80002003900dc
:100580003420ec000af0a0008b05e90008003200de
:100590000c00e0000600320015cdba000a05e800a4
:1005a000020039003420ec000af0a0008b05e900bd
:1005b0008984e80054a0b4000b00e000e2ff3a0098
:1005c000000006009902ba00055d78008b05e9007d
:1005d000f7ff3200c82ade00055d78008b05e900d0
:1005e000f3ff32000c00e000f1ff320019ddba0029
:1005f000eeff37002e250400000000004c2504000b
:10060000000000005006040000000000d4070400b1
:10061000000000005e0d0400000000000000040067
:10062000000000003600f800809fbe00829fbe00e0
:10063000849fbe00869fbe000000fa0050808000ac
:100640000000e00002003200508080000000010045
:100650003180800020808000808f500002003a00ae
:100660002188a900190037000188a900100037006f
:1006700030808000904078008180fb00211188004c
:100680000000e800308088003180800050072100a1
:10069000808f500002003a00000121003080880065
:1006a0003180800020808000808f50000600320062
:1006b0001111800000202000008060000000e00098
:1006c000ebff320001003700000000000080fa005c
:1006d0004f03be004f02be004f01be004f00be00e0
:1006e0003600f900004006003600f800809fbe008a
:1006f000829fbe00849fbe00869fbe000000fa005d
:10070000608080000000e000020032006080800015
:10071000000001000168a9001e0037000080800071
:10072000311180008140780001487800018080000c
:10073000900d2100808f5000090032000080800061
:100740008000e80010808000808f5000040032009c
:10075000008080000000e800008088000d00370065
:1007600001808000900d2100808f500007003a002a
:100770001180800050072100808f5000030032005c
:1007800050072100008088000200370010c0b3002d
:1007900008f0b70010118000610060000000e00068
:1007a000deff3a000080fa004f03be004f02be0099
:1007b0004f01be004f00be003600f90000400600a9
:1007c000801f78000000fa001011800062006000b5
:1007d0000000e000010032002222a9000828a90040
:1007e0000080fa004f007800004006003600f80054
:1007f000809fbe00829fbe00849fbe00869fbe0079
:100800000000fa00c028a9000000eb00e613070072
:100810000080fa004f03be004f02be004f01be0031
:100820004f00be003600f900004006003600f80018
:10083000809fbe00829fbe00849fbe00869fbe0038
:100840000000fa00dd130700c048a90010002000d6
:10085000d51307000080fa004f03be004f02be0010
:100860004f01be004f00be003600f90000400600f8
:100870003600f800809fbe00829fbe00849fbe00ad
:10088000869fbe000000fa00c068a900200020007a
:10089000c51307000080fa004f03be004f02be00e0
:1008a0004f01be004f00be003600f90000400600b8
:1008b0003600f800809fbe00829fbe00849fbe006d
:1008c000869fbe000000fa00c088a900300020000a
:1008d000b51307000080fa004f03be004f02be00b0
:1008e0004f01be004f00be003600f9000040060078
:1008f0003600f800809fbe00829fbe00849fbe002d
:10090000869fbe000000fa00c0a8a9004000200099
:10091000a51307000080fa004f03be004f02be007f
:100920004f01be004f00be003600f9000040060037
:100930003600f800809fbe00829fbe00849fbe00ec
:10094000869fbe000000fa00c608a90070002000c3
:10095000951307000080fa004f03be004f02be004f
:100960004f01be004f00be003600f90000400600f7
:100970003600f800809fbe00829fbe00849fbe00ac
:10098000869fbe000000fa00214680000002200081
:10099000008060000000e00003003200c4a8a9004d
:1009a0009000200080130700204680007000600047
:1009b0000000e00003003200c488a900a00020006d
:1009c00079130700ffff37000040da000000fe0047
:1009d0000a00fa0011002000b1bf9f00c0bf9f00b5
:1009e0006a805700ce0b07004fb897000080fa00ce
:1009f000000006000a00fa0051002000b1bf9f006d
:100a0000c0bf9f006a805700c70b07005fb8970000
:100a10000080fa0000000600889fbe008004780075
:100a2000109280000000e00004003a000e00070071
:100a30000084eb000000e000080035001892800000
:100a40000900e0000500320009004400060007002c
:100a50000000e00001003d000084eb000800780089
:100a60004f04be0000000600800078000100e00096
:100a700003003a00000020001092880000000500ea
:100a80000080eb0002002000828f500002003e0038
:100a9000119288000000eb00000006000a00fa0036
:100aa000200798003107980042079800be00900088
:100ab000110798000000eb00000f78000c003700d1
:100ac000000000002d1007000004a2000004e00058
:100ad000fcff3a001e009000104078009e0090003d
:100ae0008100e80011079800041007001e0fe800bd
:100af0004e0090009e007800808f5000f0ff39007b
:100b00004e0090000080fa00000006000000050082
:100b10002110210000003700889fbe008a1f780046
:100b20000004be00c900900069009000808f500052
:100b30000600390009007800d40007008000780022
:100b40000080eb000100e000170035000845780048
:100b50004900900008587800c004980019007800f7
:100b600000b8a30004003a0000a8a3000800320067
:100b7000ea4f540006003a00090078000d00070013
:100b8000800078000080eb000100e00006003a00e1
:100b900000c02000190060000200320049009000ef
:100ba000e00498000a80fb004f0578004f04be0067
:100bb00000000600889fbe008a1f780000047800ad
:100bc0000800e0000d003a000815210070054400ff
:100bd0008004eb00580078000000e00004003200c0
:100be000f4ff07000000e00001003d008084eb00fe
:100bf0008a0f5400f7ff3a0025003700000022005a
:100c0000180060008004eb0021003200a80490006e
:100c10000f00370009015100384090000000fb0030
:100c2000890078009dff07000000e00007003c00fd
:100c3000280090004004980060049800500c980030
:100c40001890a0008084eb001100370080844400dd
:100c500048019000828f5400eeff39002800900078
:100c6000400498009800780002c0200002816000d3
:100c700001003a003800900001e8a30002003200b1
:100c80006004980001003700500c98008004eb00cd
:100c9000090078004f0578004f04be0000000600f0
:100ca000889fbe000004780001007800820478006c
:100cb0008801780009017800110020000e0007006b
:100cc000890f5000010032000004eb00080078009a
:100cd0004f04be00000006000000fa00e881570043
:100ce0004fb997002110210000652000780107000e
:100cf0000080fa0000000600889fbe008a9fbe00a8
:100d00008c9fbe008e1f78000006780001047800da
:100d100002007800830478008881b9000207780017
:100d20000e00e000420032000800e0004100320006
:100d30008e057800c900900069009000808f5000f7
:100d40000400390009007800500007000000e000ae
:100d50002900350000402000190060000a00320020
:100d60000b017800a10020000c007800360007007d
:100d7000800678000d00e0000600320061051600d4
:100d80000a854600040037000b0578008006eb005a
:100d9000010037000b05780049009000e900900041
:100da000808050008a8f50000200310001057800d9
:100db0008006eb000a0178008c0078002c00070008
:100dc0008a855500490090000a004000c004980040
:100dd0000d00e000040032000900780075ff0700f4
:100de0000000e00004003a000b00e00002003200c6
:100df0000a064600cfff370000802000190060007f
:100e000002003200090078006aff070000c02000dd
:100e1000190060000200320049009000e0049800d0
:100e20008b055700110009008885d80001003700a4
:100e30000000eb004f0778004f06be004f05be00d4
:100e40004f04be000000060003003700b0cf1000c2
:100e5000050032000201e900800178000200e00094
:100e6000faff3a00000005000300780000000600c9
:100e70008001780002003700b15978000201e900d2
:100e80000200e000fcff3a0000000600889fbe0060
:100e90008a1f780000047800c80090006801900064
:100ea0000000eb00828f50003c00390018007800f1
:100eb0002200290002016000e20f51000700320009
:100ec000012020000000e000010035000120240086
:100ed000008c70000080eb0030003700020026001c
:100ee00002006000820f500009003a0038009000b4
:100ef000808f500006003900080078002dff0700a1
:100f0000800078000080eb000100e00023003a0040
:100f10001805780000c020000000650018003a00a5
:100f2000a80490006002200008004000808f540058
:100f300013003a00002020007203070020049800ec
:100f40000000e00005003a002904980049049800d8
:100f50008904e80039049800080037000a60a000fe
:100f60000a0c780040049800012020008080400096
:100f700031049800400c9800500c98007e02070045
:100f800028009000500498003800900060049800f9
:100f900000002600180c70000000eb004f057800e0
:100fa0004f04be0000000600889fbe0000047800c9
:100fb0000203be00810478000802780089017800ed
:100fc000120020000600be00ca070700890f50006b
:100fd000010032000004eb00080078004f04be005e
:100fe000000006006800fa00889fbe008a9fbe00cd
:100ff00080047800010478008205780003057800f9
:101000008400780000f92f000f004000d60207008e
:10101000d98f9f00fb8f9f000000eb00a09f9f00d7
:10102000e88f9f009a84fb000904fb008904ea0012
:10103000cf4cde0050022000800f54000d00320023
:10104000e18f54000b003a00090178008a00780013
:101050007f889700df89970003000100f08f9f00d1
:101060000000e000950032002f9897000000e80093
:10107000a09f9f000905450050022000800f5400ea
:10108000040032000800e000e6ff3a002f989700c5
:101090008b0037000000eb00809f9f00f0979f00bf
:1010a000e0979f00d0979f00c0979f00b0979f0048
:1010b00007003700212321000100500000004000fc
:1010c00061222100808040004f989700110070003d
:1010d000c09f9f000a04780008057800ba44780091
:1010e0008900fb0020232100850207000000e000aa
:1010f000f0ff3a00a1c2b30081cf54000e003a00c5
:101100008f8897000180e900808f9f001000780091
:10111000b09f9f000000e00005003d000000ea00d5
:10112000b09f9f004f9897000020a000c09f9f0095
:101130000804e80010003700b09f9f008800780086
:101140000000eb0005003700f3ff2700830f50007d
:1011500002003200ea00b9000000410001047800fa
:10116000880078003101fb000203b100e90f510053
:10117000f5ff3600b09f9f00e0c2b300984f10000b
:10118000020032000080eb0019003700a0c2b3005b
:10119000d84f100007003a008f8897000180e900bf
:1011a000808f9f0010007800909f9f000804e80047
:1011b000100037000000eb00909f9f00880078002f
:1011c00005003700f3ff2700830f500002003200b4
:1011d000ea00b900000041000104780088007800ae
:1011e0003101fb000203b100e90f5100f5ff3600a9
:1011f000909f9f00984478008900fb00e021210027
:101200003f0207000000e000020032000804e8008e
:10121000010037008044eb00a97f9f0080c6b30027
:1012200080cf540006003a0098cf140010003a0016
:1012300066405000a07f9f000804e8000c003700c3
:10124000c0c6b30080cf540009003a0098cf140004
:1012500007003a0067404000d84f100002003a00f3
:101260006e4050000100370010c7b300a07f9f0000
:10127000c3fb2f008f8141001841780001f92f0036
:101280008f80400020f92f000f004000150007005c
:101290000000e00009003a00c1fb2f008f804000f1
:1012a00020f92f000f004000380607000000e00082
:1012b000020035000805e8005aff37000080eb0007
:1012c0004f05be004f04be000080fa00000006007b
:1012d000030278008201780001017800417d20003e
:1012e00040ff3700889fbe008a1f78000004780006
:1012f000824478000305780070c6b30080cf5400a4
:1013000021003c0000c0e90080cf5400e6003d0011
:101310007240500080cf5400530132000d003c0059
:101320006c40500080cf540085013c0000c0e900b3
:1013300080cf5400dc003d0050c2b30080cf540089
:101340007c0132007c40400080cf54007c013a0098
:10135000d500370010c6b30080cf5400d200320051
:1013600004003c006940500080cf540074013a00f2
:101370007300370030c6b30080cf5400180032002d
:101380000040e8000900370000c7b30080cf5400d8
:101390002701320008003c0000c0e90080cf540063
:1013a000f000320066003c006540500080cf5400e1
:1013b00063013a001000370050c7b30080cf5400db
:1013c0005f0032006340400080cf54005c00320078
:1013d0006540500080cf540059013a002201370087
:1013e0001181e90082087800280890000005450076
:1013f000124d78005801370008689000c2c6b3004b
:10140000824f500008003a0011017800640051003a
:101410008008780090009000100078004f89de006e
:10142000820178001600370012c7b300824f5000c7
:1014300003003a00110278006800520005003700ee
:10144000a2c6b300824f500008003a009102780013
:101450006880520080087800900090002001900081
:10146000b001900010007800050037001180e900fd
:101470008008780010007800cf80de006109b90094
:10148000009cbe000294be00086a900085c6b300ae
:10149000854f52000d00320025c6b300854f520023
:1014a00004003a000000fb00cf80de006109b900b3
:1014b0000800370045c7b300854f520003003200d3
:1014c000e6c24200854f520004003a00cf80de00a1
:1014d0006109b900009cbe000294be0018027800a9
:1014e0009802900028039000b8039000280890000c
:1014f000e00f5200e08f5a00e00f5b00e08f5b00ce
:1015000003003d0080004500d2c2b3000a0037004e
:10151000b81090000118a3000300320080004500bd
:10152000b2c2b300040037000108a3005900320022
:101530008000450002c2b3008248780053003700a3
:1015400008689000c2c6b300824f500009003a00fc
:1015500011037800640053008008780010027800be
:10156000900290006033b8000400be000601be0087
:101570001600370012c7b300824f500003003a0034
:10158000910278006880520005003700a2c6b300bf
:10159000824f500008003a001103780068005300a1
:1015a000800878009000900020019000b001900029
:1015b00010007800050037001180e90080087800ed
:1015c000100078008000eb006011b800009cbe00a5
:1015d0000294be00086a900085c6b300854f520091
:1015e0000d00320025c6b300854f520004003a00ba
:1015f0000080fb008000eb006011b800080037009d
:1016000045c7b300854f520003003200e6c24200d6
:10161000854f520004003a008000eb006011b800d2
:10162000009cbe000294be00381090000038a30059
:1016300018003200180078009800900028019000ef
:10164000b8019000e00f5000e08f5800e00f590003
:10165000e08f59000f00320080c7b30080cf5400e4
:101660000300320080c5b30080cf540009003a0067
:10167000280890008000450002c3b300824878002b
:101680000000e80080004500894878000000e8007c
:10169000200c980028089000000545007a04980066
:1016a000894078006d00370008699000c0c4b3001d
:1016b000804f510008003a00910378006880530081
:1016c000800878009000900020019000b001900008
:1016d0001000780006003700110178006400510006
:1016e0008008780090009000100078008c090700b6
:1016f000009cbe000294be00b80090002808900034
:101700000100e00003003d0080004500d2c2b300ac
:101710000a003700b81090000118a300030032003f
:1017200080004500b2c2b300040037000108a300e6
:10173000050032008000450002c2b30082487800f4
:101740000000e800200c98002808900000054500e3
:101750007a0498008940780008007800a301070007
:101760007f00370008699000c3c6b3001180e9000c
:10177000834f5100220032000a003c00e4c15100b6
:10178000834f51002500320083c1e800834f510090
:1017900013003200e8c15100834f51001e003a008f
:1017a0000a00370043c7b300834f51001b003200cb
:1017b000e6c14100834f510018003200e9c15100d9
:1017c000834f510014003a0005003700800878006c
:1017d0001000780028649000084878006000370006
:1017e000800878001000780018129000cfa2de0068
:1017f000612bb9000498be000690be005800370067
:10180000800878001000780018119000cf91de0059
:101810000288be00520037001180e900800878007d
:101820001000780018149000080878004c00370069
:101830001180e9008008780010007800cf80de0079
:101840006109b900009cbe000294be002808900007
:10185000000545007a04980081c7b30008007800ad
:101860008d0307003e0037000869900050c6b300a2
:10187000804f51001b003a001102780064005200b2
:10188000800878009000900010007800000c98000c
:10189000110c9800881190000300e00007003d0043
:1018a0008081eb000001eb004a0807000001be0048
:1018b0008808900081005100080037000001eb000b
:1018c00044080700008170000300320008099000fe
:1018d000820050000100370088109000410c9800f1
:1018e0001f0037001180e90080087800100578009b
:1018f0007a049800881490000900e00004003d007c
:101900000a007800290107008004780007003700ea
:10191000090178008000eb000a0078004afd07000a
:101920000000e000010032008a045000490c9800d9
:101930000b0037002808900000054500050037001f
:1019400028089000000545000904e00001003a0065
:1019500059c2b300094d78000000e800200c98003f
:101960000000eb004f0578004f04be0000000600a9
:10197000e0d520006f003700881f7800c8232100c1
:101980001804e00003003a00f9ff070020c0b3008c
:10199000004c78004f04780000000600889fbe00cd
:1019a000000478000800780082fc070080047800ba
:1019b000000420001800600002003200280090009f
:1019c0006b0007000000eb002004980038409000f6
:1019d0000004e000050035000000fb00fcfb0700f0
:1019e0000000e000010032008084eb00181090003d
:1019f0000000e00008003200fefb07000000e000ed
:101a0000010032008084eb0018109000580007009d
:101a10000000eb001014980000082000180060007f
:101a2000150032000001eb006000b8000202d00097
:101a30002315210003024200940f140005003a0010
:101a40000000400081804800008041000008eb0059
:101a50000600370061004000e08048000201e80015
:101a6000e80f5000e08f5800f0ff3a0008007800bf
:101a70003f0007000e003700000c780000c0eb00ac
:101a800030449800600220000800400020049800c4
:101a90004004980050049800400c9800600498009e
:101aa000500c98007004980076004400000c9800d8
:101ab000090078004f04be0000000600881f78006f
:101ac0000004eb006140b800e2ff2f00f3ff2f009d
:101ad00082090700021621008000410011007800f1
:101ae0000000e00001003200acff07000804e8003d
:101af000e80f5400f3ff3a004f047800000006009e
:101b00008001eb00030037008301e8000404e000db
:101b1000050032000301400012427800814f52005c
:101b2000f9ff3a00010037000001eb0002007800e5
:101b300000000600010020000100e0000900320062
:101b4000010080000100e000060032008100e90091
:101b5000010088008100d0000200800082804000e7
:101b600080087800000006000108780000000600e8
:101b70000000e0002f003200c0017800e38f510028
:101b80002c0036000308a3002a003a00d1918000ff
:101b90000100e00002003200810f5000040031001b
:101ba00011009800d091880016003700820078005c
:101bb000110190000200e00002003200800f51008d
:101bc000faff39001102780084824000850f50002e
:101bd00018003900808f520003003a008308420049
:101be00001007800070037000200e0000300320027
:101bf00083014000830f51000e003900120098004d
:101c000090009800900090000100e0000900320070
:101c100010014000828f500006003a00822321000c
:101c20000009eb00100178001108410091009000bc
:101c30001100980000000600889fbe000004780094
:101c4000c19180000100e000020032000100780034
:101c50000d003700d1918000a0232100040037003f
:101c6000910f5400250036000180e800910090009b
:101c70000100e000faff3a0010003700920f540014
:101c80001e0036000280e800100178000200e0002b
:101c9000faff3a0011017800d1918000a0232100c1
:101ca00004003700910f5400140036000180e80052
:101cb00091009000828f5000faff3a00f991800065
:101cc000888f5400010031008804780009007800f2
:101cd0003c0007000000e00004003a00888f540038
:101ce000050032008904d100f5ff3700091878009b
:101cf0009fff0700d2ff37000000eb004f04be003b
:101d000000000600881f7800630440000800a1005e
:101d10008000eb00800f540021003600e30f5400d8
:101d200001003e004800200008007800c2ff0700c4
:101d30008000eb000000e000190032009000780005
:101d40009101780064815100880f51000300310037
:101d50001101900002087800070037000881400058
:101d6000020878009101900013019800100178009a
:101d70001109140088087800100178000000eb00b9
:101d80000200e00004003200920190000300e00035
:101d9000010032000280e800c09188008180e800e4
:101da000010078004f0478000000060080007800f1
:101db000010178003104e000fdff3a00000051000d
:101dc00000000600800078000000eb000100e00049
:101dd00005003400010078000ffb0700e10f400010
:101de00001003a000000eb0000000600cf04b00044
:101df000889fbe008a9fbe008c9fbe008e1f780009
:101e000000067800814678001c0078009c00900055
:101e10002c019000bc019000d0979f00e1979f009b
:101e2000f2979f00839f9f0010c6b30080cf56009b
:101e30001200320010c4b30080cf56000f003200f1
:101e40000c1090000000e00002003d006000200047
:101e5000090037000000e00008003a0070c6b30037
:101e600080cf56000300320070c4b30080cf56000c
:101e700002003a0010002000001698008c00780044
:101e800080fa2f000f004000d9010700e20f500038
:101e90000f003a0030002000400e9800201621006c
:101ea00011c6b30081cf560019003200e4c04000d3
:101eb00081cf560016003200601621008140e800f4
:101ec00081cf560012003a00201621001000370082
:101ed0000000e0001400340030002000400e9800a4
:101ee000a016210011c6b30081cf560008003200b1
:101ef000e4c0400081cf560005003200e01621000a
:101f00008140e80081cf560001003a00a016210070
:101f1000fc009000b0487800b0687800104078006d
:101f200090409800ac01370011c6b30081cf560035
:101f30000300320011c4b30081cf56000e003a00f6
:101f4000fc00900002c3b30082587800710698002c
:101f500082c5b30013c6b30083cf560001003a0018
:101f600082c7b3008258780071069800ac089000d0
:101f70008180e800210e98000000e00005003a0092
:101f8000c0979f008001eb0022fb2f000f01410052
:101f90008d01370010c6b30080cf56000600320016
:101fa00010c4b30080cf56009c003a0031182100c5
:101fb000d1b79f000200370022172100d2b79f003f
:101fc0000c1090001b0220000000e0000100350012
:101fd0008005e8000b05e8006022b8006033b80017
:101fe0005f909700ef9097007f9197008f999700ef
:101ff00093060700000278001c0078009c00900007
:102000002c019000bc0190000400e00001003d00a4
:1020100003f0a200d0979f00e1979f00f2979f00e6
:10202000839f9f00cf919700e4815100c3979f0049
:102030000040eb00a0779f003efb2f000f074700fa
:1020400031003700c201200003002000a0fa2f0059
:102050000f004000740407005f909700ef90970016
:102060007f9197008f99970090b79f00a1b79f002d
:10207000b2b79f00c3b79f00480707000004be0027
:10208000670555004240a9000c0034006f070700a7
:102090000002be000203be001fb09700afb0970061
:1020a0003fb19700cfb19700f7070700d0979f0087
:1020b000e1979f00f2979f00839f9f00670747006b
:1020c00070002000050037006f676400cc48dd0019
:1020d0004444de0008847000c4ccde00e00f5400ed
:1020e000e08f5c00050034000000e900e10f4000d3
:1020f000f5ff3a00010037000067eb000000e9003f
:10210000fdff3b00670747000a00e00009003400bc
:102110006022b8006033b8005f909700ef9097009e
:102120007f9197008f9997004a0607000000e00012
:10213000c4ff3c0032fb2f000f0141000207570093
:102140008e0178008b0f5700010034008b0178005e
:102150000300e0002b0035000040eb008e8f5100a3
:102160000a003d0082fa2f000f01410003004100e8
:10217000b0489000f0c0b300e7cf500003003c002f
:102180000040eb0001003700810178008300e90086
:1021900034fb2f000f02420001014200124278007e
:1021a000804f5200f8ff3200ef4f500001003a001c
:1021b0000449e8000100e00007003d008301e80059
:1021c000cf929700e4824200c5979f0022fb2f0028
:1021d0000f0141000200370032fb2f000f014100c8
:1021e0008300410003007800040037004102fb0037
:1021f000dfb2970004824200944878000000e900b2
:10220000faff3b000c1090000000e000ee003d00e3
:102210000300e90000169800eb0037005f94970078
:10222000ef9497007f9597008f9d97006022b800ec
:102230006033b8000800be000a01be0000060700b7
:102240000000e00005003d000bf0a200d8979f00c1
:10225000e9979f00fa979f008b9f9f007059270076
:10226000cf9097000088b900026a28001300200070
:102270005706070064045000c8979f0017003b00f2
:1022800063041400c0ff2f00000464000800ea008b
:10229000c0979f005f909700ef9097007f91970005
:1022a0008f9997004a192100090037000808a300f8
:1022b000050032001a0278009a0290002a0390006a
:1022c000ba039000fa0607000884d10068054500ab
:1022d0000800e000f5ff3c001c0037000800e000ab
:1022e0001e003200c0ff2f0000046400c8979f004a
:1022f0004a1921006000b8000200200003ff2300fb
:10230000090037000808a300050032001a0278000f
:102310009a0290002a039000ba039000e406070096
:102320000884d100680545000800e000f5ff3c0086
:102330000002be000203be005f909700ef9097007e
:102340007f9197008f999700c7050700d0979f004e
:10235000e1979f00f2979f00839f9f000c179000ca
:1023600060c6b30080cf5600040032006000200039
:1023700061c4b30081cf560002003a00cf909700ad
:102380006a8040000e074000f30f57000100340040
:102390003e01200000c3b300a0779f003bfb2f004d
:1023a0008f854500350037005fb09700efb097008c
:1023b0007fb197008fb99700780607000004be0030
:1023c000680757004240a900100034009f0607002c
:1023d0000002be000203be005fb09700efb097009e
:1023e0007fb197008fb99700270707006022b800d8
:1023f00046782d0077192400ad060700d0979f007e
:10240000e1979f00f2979f00839f9f00e88545001a
:102410008a0020000801be000c003700a400200044
:1024200005002000a0fd2f000f0040001d03070045
:102430005fa89700efa897007fa997008fb197003a
:1024400004c3b300846541000001be00e00f5100e9
:10245000e08f5900060034000a05e900e10f45004d
:10246000eeff3a000200370000c3b3008065780039
:102470000a05e900fcff3b00e88545000e00e0008e
:102480000d0034005f909700ef9097007f919700c8
:102490008f999700d0b79f00e1b79f00f2b79f00d8
:1024a00083bf9f006022b8006033b8006905070051
:1024b0000000e000bcff3c0031fb2f008f8040009b
:1024c000818555004f91970067004100c0979f009c
:1024d000020037008b05e9000000e90001017800e7
:1024e0008200780003c3b300b1cf1100f9ff3200be
:1024f000c0979f008c11900061c6b30081cf560039
:102500000300320061c4b30081cf560002003a00dc
:102510000000e800090037001000200051c6b30099
:1025200081cf5600050032000d40780050c4b20043
:102530000080fb000000e9004f00de008301400046
:102540008b8f5100010034008b0178000300e00004
:102550001d00350000c3b3008b8f510006003d0005
:10256000030241006940400041c3b30094cf100012
:1025700001003c00694050008300e90081004100f7
:1025800001003700840178000302e90001037800ac
:10259000a142780080cf5200faff320091c3b3000d
:1025a000814f500001003a00054be8000400e000b4
:1025b00005003d000201e9008301e8004f92970009
:1025c0000402e800c4979f004f9297008d40780066
:1025d0000c0078008f0307004f0778004f06be00fd
:1025e0004f05be004f04be00cf04b100000006003e
:1025f000889fbe0000047800e68440001900d000e7
:102600004500de00f27f2000820f500010003a00eb
:10261000000ceb00990478006f816400200020001a
:102620001b003a00210190000200e00018003a006f
:10263000110190000200e00015003a001000200097
:102640001100e000120032002000200010003700ce
:102650000000e00004003a0001007800a602070034
:102660000000e00008003c00f200280019016100b1
:1026700001fe2300810c710021c02f00010c4000dd
:102680000080eb0002003700000ceb000000eb00c4
:102690004f04be0000000600fc874700889fbe0074
:1026a0008a9fbe008c9fbe008e1f780000067800b7
:1026b00080c5b30080cf50000a0032007740400050
:1026c00080cf50000a0032006940400080cf5000a7
:1026d0000b003200d01e210080bf9f00ae00200002
:1026e0000a003700c21d210082bf9f00060037008c
:1026f000d31e210083bf9f008e00200003003700ff
:10270000d41e210084bf9f000e0120001c0278000f
:102710009c0290002c039000bc0390000605be00b4
:102720000404be0040c6b30080cf50000300320056
:102730006540400080cf50000b003a00e00f52008f
:10274000e08f5a00e00f5b00e08f5b0006003d0069
:102750006000b8006011b80004045000858458007f
:102760000605590087855900e80f5700040032001c
:1027700040002000f00f57003c003a0001003700f5
:1027800030002000e00f5400e08f5c00e00f5d009f
:10279000e08f5d0004003a008c1090008d01200055
:1027a0000100e000070032008e00e9008880600030
:1027b0008fba97008180420091407800f1ef9f002e
:1027c0007d012000800078008100e90005003300d1
:1027d0008b05d1000a85d3008984d3000884d300f7
:1027e000f9ff3700089ebe000a96be0013003700ae
:1027f0008d06e9008e00e900848060000fb9970023
:10280000810041001141780083fd2f008d8141003e
:1028100082f77900800178008301e9000500330028
:102820008783d1000683d3008582d3000482d3003e
:10283000f9ff3700049ebe000696be001c02780019
:102840009c0290002c039000bc039000e00f52000b
:10285000e08f5a00e00f5b00e08f5b0093003400d4
:102860000d00e000e2ff3c00900037000c68900093
:1028700081c6b300814f50000b00320006003c00bf
:102880000004e00008003200e6c05000814f500014
:1028900052003a0004003700c1c6b300814f500017
:1028a0004e003a00230037000800e00004003a0020
:1028b0000c1090008d0120000000e00007003200a5
:1028c000110009000e84d8000fba970001004200e1
:1028d00010407800f0ef9f007d01200011000900fa
:1028e0000e84d8000b003700110009000e04d80038
:1028f0008d06e9008e81b900020454008fb897005c
:10290000088440009841780082fd2f000d014100ad
:1029100083777900000478000800e00002003200ac
:102920000d00e000f0ff3c00cfc4de00614db900b7
:1029300027003700e00f5400e08f5c0004003a00ed
:102940000c1090008d0120000000e0000800320013
:102950006171b9000800be00dd0507000fba9700dd
:102960008000420091407800f1ef9f007d0120003f
:102970006171b9000800be00c50507000c003700f2
:102980006171b9000800be00910407008d06e900de
:1029900080f1b900020454008fba97000884420005
:1029a0009841780082fd2f000d0141008377790066
:1029b0000004be00e00f5000e08f5800020032001b
:1029c0000d00e000eeff3c004fcdde008a057800f0
:1029d000089ebe000a96be0034003700e00f540087
:1029e000e08f5c00e00f5d00e08f5d0004003a00c6
:1029f0000c1090008d0120000000e0000a00320061
:102a00006172b900612bb9000800be000a01be0066
:102a10005a0607000fba97008000420091407800e4
:102a2000f1ef9f007d0120006172b900612bb900b8
:102a30000800be000a01be00490607000e0037006c
:102a40006172b900612bb9000800be000a01be0026
:102a50004e0607008d06e90080f2b9000404540018
:102a60008fba9700088442009842780084fd2f00b6
:102a70000d02420085777a00009ebe000296be00dd
:102a80001c0478009c0490002c059000bc0590006c
:102a9000e00f5400e08f5c00e00f5d00e08f5d0010
:102aa000020034000d00e000e5ff3c00e80f570095
:102ab00010003a003c1090000038a3000d003200d6
:102ac000f78f560006003e0080fd2f000d004000ed
:102ad000ef40780000c3b30080cf50000500320003
:102ae00002c3b30071fd2f008d8040008d06e90008
:102af00082f7780078811600420e98007c009000e2
:102b000083fd2f008f8141008d804100d8f80700a0
:102b10004c0890008c109000810f500006003d0082
:102b200000805000300e98003c1090000040a10042
:102b3000301698000f0037000100e0000d003d0046
:102b4000bc109000f4806000f08f500009003a0043
:102b50002c119000ac089000810051003c099000bd
:102b600082805000008050004240a90001003400e3
:102b7000300e98004f0778004f06be004f05be008c
:102b80004f04be00cf01b100000006000400fa00af
:102b9000889fbe008a9fbe008c1f780000047800ca
:102ba00001067800a8149000280890008084540042
:102bb00038089000808454004808900080845400b5
:102bc0005808900080845400680890008084540065
:102bd00078089000808454000002220090bf9f007b
:102be00000032300a0bf9f00381090000028a3001e
:102bf00015003a000900e0001300340009057800d0
:102c00008a057800e20f5500010036002b002000f5
:102c1000c80190000b017800ee805700680090001a
:102c200003000100600498000000e000aa003200e8
:102c3000181090000b004000101498000b05550070
:102c40004240a900eeff3c00280990000200e0008d
:102c50000c003400c80190008c00780068009000df
:102c600003000100600498008080eb000000e00099
:102c70009a003200981090002808900000804000d0
:102c800010149800380d90000a00e0001100340084
:102c90008a057800e20f5500010036002b00200065
:102ca000c80190000b017800ec805700680090008c
:102cb00003000100600498000000e000860032007c
:102cc000181090000b004000101498000b055500e0
:102cd000edff370008699000c808900050c6b300a7
:102ce000804f510008003a000100e0001500340058
:102cf0005802900008099000980990006800900020
:102d000004000100070037000100e0000d0034005e
:102d1000c801900001017800f80090006800900060
:102d200003000100600498008080eb000000e000d8
:102d30006a0032009810900048089000008040001f
:102d400010149800580d90000a00e00011003400a3
:102d50008a057800e20f5500010036002b002000a4
:102d6000c80190000b017800ec80570068009000cb
:102d700003000100600498000000e00056003200eb
:102d8000181090000b004000101498000b0555001f
:102d9000edff3700086990006808900051c6b30045
:102da000814f51000d003a000000e0001c0034008b
:102db00078019000c8089000010141006111b8003d
:102dc000828fd2008381d200580290008000780068
:102dd0006800900004000100090037000000e000d6
:102de0000f00340078019000c80890008100410075
:102df000c801900000017800680090000300010005
:102e0000600498008080eb000000e0003300320096
:102e100098109000680890000080400010149800fe
:102e2000780d90000a00e000110034008a05780057
:102e3000e20f5500010036002b002000c801900071
:102e40000b017800ec80570068009000030001003f
:102e5000600498000000e0001f003200181090008d
:102e60000b004000101498000b055500edff3700d3
:102e7000381090008000eb000028a30017003200fb
:102e80000900e0001500340009057800e28f5400c5
:102e9000010036002a002000c80190000a017800d5
:102ea000ee80570068009000030001006004980065
:102eb0000000e00008003200181090000a004000f6
:102ec000101498008a8454004240a900eeff3c0090
:102ed0008000eb00010037008080eb0001007800eb
:102ee0004f0678004f05be004f04be000080fa0078
:102ef00000000600e6874700889fbe008a9fbe004c
:102f00008c9fbe008e1f780082bf9f000404780053
:102f10008299b900f2b79f000200e0005900320028
:102f20000fb997000200e000570032000006be0013
:102f30007fb79700c800900068009000808f500015
:102f40000400390008007800d0f707000000e00016
:102f50003b00350000402000180060000a003200ed
:102f60008e017800a20020000c00be00990207002c
:102f70000005be0000807500070032008c0455007b
:102f80008904e800050037008e0478000a0020005c
:102f90000b002000010037008e04780048019000eb
:102fa0006800900002005000890f500003003100bb
:102fb000800478000a0020000b0020006111b80096
:102fc000828fd2008381d200090278000c00be00fb
:102fd0005702070009075700480090000900400009
:102fe000400498000a85750004003200080078004b
:102ff000f0f607000000e00011003a000e00e000cb
:103000000f0032006148b800808fd2008180d2006a
:103010000000780000f0a1000c01d0008001d00079
:10302000030641004220a80081864e004200a9000c
:103030004220ae004200a8000c86d300bdff37003e
:1030400000802000180060000200320008007800b4
:10305000d8f6070000c0200018006000020032000f
:1030600048009000600498007fb197000e0751005f
:103070000fb99700110009000287d800800178007d
:10308000010037008001eb00030078004f07780053
:103090004f06be004f05be004f04be006f00b100da
:1030a00000000600881f78008a9fbe008c9fbe002b
:1030b000000478000205be000406be000401be0044
:1030c0000a00be00c2020700008cbe000c01be0058
:1030d000020407000005550081855d002a04980060
:1030e0003b049800080078004f06be004f05be0064
:1030f0004f04780000000600e6004000110178004f
:1031000005002800850261006f01610082087800d7
:10311000020032001200200011003700a0019000d0
:10312000120020000300e0000d003a009001900022
:103130000300e0000a003a001000e00008003a0036
:10314000360037006403400096087800800178005c
:10315000530b780090097800040878007001510042
:10316000110278000400e000f6ff3200130037007f
:1031700064024000140378004f33de008381410075
:103180008308730080017800d3037800cf3bde0012
:103190001403780006034300068a730013027800c4
:1031a00004024200100378004f33de0086097200eb
:1031b00090017800038841000201e9009101780044
:1031c000ef8f5100eaff36001000370080017800d1
:1031d000530378004f33dd001002d1000408730060
:1031e0006402400094037800cf3bdd001303d1005c
:1031f00086897300110378004f33dd009401d100fc
:10320000030a73009108d1000201e80091017800df
:10321000ff8f5100edff3e00ef8861009188720042
:1032200002007800000006000400fa00889fbe003b
:1032300000047800e6044400190078008000d00003
:10324000c508de00f47f2000848f50000e003a0095
:10325000ef006000200020006b003a00a800900002
:103260000100e00068003a00980090000100e000d2
:1032700065003a00100020001800e00062003200f3
:1032800020002000600037000100e0000a003a0042
:1032900008007800c2bf9f00d3bf9f0096ff0700c1
:1032a000800078000000eb004fb99700dfb997006d
:1032b0000100e00054003c004f88de000281400025
:1032c00083014800e07f2000800f5100e08f59000b
:1032d0000d0034001900e00004003d006000b8005b
:1032e0000200200003ff2f00030037006000b80039
:1032f0000200200003ff2700009cbe000294be00d5
:103300001000200040003700e00f5100e08f59000e
:10331000050034004411dd00f000280019006000b1
:10332000800c710037003700190078000400280075
:10333000040260006f0060000040a000800c780074
:10334000d0fc2f00f1ff2f00800f5100818f59001a
:1033500006003d00840c78000000eb00200498007b
:1033600010049800000ceb00270037006f014100ab
:103370000600370008007800500c7800e400440094
:103380001108780099087800800ceb00700051005b
:103390007001410001fe2f0082804000ef8f40004d
:1033a000f4ff35000000ea001500320088007800c4
:1033b00070011000d1027800822add0098017800a7
:1033c0008019de00038c72006404440098027800c7
:1033d000822add00910178008019de008388720066
:1033e000990078000209dd00980078008008de006e
:1033f000010c7100990078000008de00800c780054
:10340000990c72000080eb004f04be000080fa00af
:1034100000000600f0874700889fbe008a9fbe001c
:103420008c9fbe008e1f78000004780081447800d5
:103430000205be00040678000b00e00002003c001c
:103440001b0020000a24210060c6b30080cf540076
:103450000e00320060c4b30080cf54000b00320075
:1034600070c6b30080cf54000300320070c4b300b4
:1034700080cf54009d003a00e40f460083003500e1
:1034800008109000800f560080003d000c06e800f8
:1034900060c6b30080cf54001000320060c4b30097
:1034a00080cf54000d003200381090000038a30087
:1034b00004003a0008109000808f550001003d0084
:1034c0000b149800081090000c0050000014980095
:1034d00002003b000000eb0000149800c8089000b8
:1034e000780090000c00e00028003c000100400043
:1034f00002c3b300024878008100e800410c980044
:10350000081090000000e00003003c00381090001c
:103510000038a3000600320078009000010040004f
:10352000e2c2b300024878008100e800410c980034
:10353000081090008c00ea00810f500001003d004f
:103540000006ea008c00ea00510c980000064600d4
:103550000c1498008b0f5600010034000b06780005
:103560006c0c9800f8009000480890000080400023
:103570000c0178008a0078003df6070008109000e2
:103580000c0650007c0c9800c20037008c8f550050
:1035900019003d00010040000b0178008a0078000e
:1035a00033f607004808900000804500400c980062
:1035b0008b0556005b0c9800881090000100e0001d
:1035c00003003c00b81090000138a300070032004f
:1035d000f800900000804000e1c2b300014878008c
:1035e000680890000000e800600c98000810900047
:1035f000700c9800a7003700010040000c01780013
:103600008a0078001af6070048089000000046007b
:10361000400c98008c855500881090000100e00057
:1036200003003c00b81090000138a30006003200ef
:10363000f800900080804000e2c2b3008248780029
:103640000000e800400c980008109000808f5500a2
:103650000100340080057800f800900048089000d0
:10366000008040008c0045000b01780000f6070048
:10367000480890000b004000400c98000810900093
:103680008b0550005b0c98008200370070c6b300b9
:1036900080cf54000300320070c4b30080cf5400c8
:1036a00012003a0008109000808f550004003d0081
:1036b000381090000038a30001003a000b14980065
:1036c000081090000000e9000014980002003b0080
:1036d0000000eb000014980070c6b30080cf5400c7
:1036e00009003a0059c6b3000c00370010c6b300f9
:1036f00080cf54000600320010c4b30080cf5400c5
:1037000006003a000400370059c4b3000300370034
:1037100009c7b3000100370009c5b300480890008d
:10372000f8009000808040009a4878000000e8008f
:10373000400c9800881090000100e00003003c005d
:10374000b81090000138a30006003200f800900085
:1037500080804000e2c2b300824878000000e800a8
:10376000400c9800081090000000e00010003400a9
:103770008b05e900808f550001003400800578003a
:10378000f800900048089000008040008a00e8009f
:103790000b017800b6f50700480890000b004000c8
:1037a000400c9800081090008b0550005b0c9800ae
:1037b000f800900048089000008040000958780008
:1037c0000005e8000c00e00004003500b1c2b300c1
:1037d000014878008a06780004003700d1c2b3009f
:1037e000014878008a0678000c06ea00fd8557003b
:1037f0000007eb0009003700a20020008c007800d1
:10380000728057003b0007007fb097008fb8970089
:10381000816d7800000678000e07e8000c00e000db
:10382000f5ff3c00e10f570013003c0050c6b30009
:1038300080cf54000300320050c4b30080cf540046
:1038400003003a008a06780000c3b300805e780067
:103850000e00e00008003a0000c3b300805e78006c
:10386000050037000e07e900fc8057000e8040007d
:1038700001c3b30090de40000e00e000f9ff3c0001
:10388000f8009000480890000080400080865600b4
:103890006d0c98003810900074006000f00f50001c
:1038a0000e003a00c80890002808900000804000f0
:1038b000d808900001004000e80890000100400096
:1038c000f808900001004000a8109000810f5000ff
:1038d00002003d0000805000300c98004f07780037
:1038e0004f06be004f05be004f04be000f01b100e1
:1038f0000000060080027800010378001100090032
:103900000203d80080017800830a78008299b90008
:103910008200530091029800050078000000060024
:1039200000c0da000000060000c0da000000060057
:103930003400f8003200f8000203be00820270007a
:103940008502720002f0a6008301e800a30188004e
:1039500000f0a6008100e800910188001500b20087
:103960000c003200104978000402e9001500320012
:1039700061014100020039003420ec0002002800ff
:1039800061004000f7ff39003220ec000000280001
:10399000f4ff3700100978000482e90009003200c2
:1039a00062014100020039003420ec0002002800ce
:1039b00062004000f7ff39003220ec0000002800d0
:1039c000f4ff37003200f9003400f9000601be00b0
:1039d000000006000300e0000700320095018000af
:1039e00001d0fe001042780005d0fe000402fb006a
:1039f000820f5200110032008301e900950180001e
:103a000001d0fe001042780005d0fe000404e00062
:103a100008003200000278001000b00000026a00c6
:103a20004260af0000f0a0000482d2000180b0002c
:103a3000e8ff370000002000010020000000060021
:103a40008f1fd1002e0307008f87e9000000e000e0
:103a500000000600809feb00290307008f87e90024
:103a60000000e000000006002800fa00889fbe0069
:103a70008a9fbe008c9fbe0003866b008f000700ec
:103a80006400e100440032006408e1004a003200b2
:103a90006100e100460032006108e10049003200a7
:103aa000ec0647006000b8003d02be003d03be00ca
:103ab000f48657006011b8003d04be003d05be000d
:103ac0007d0320000b0037000000a0008d06e900f8
:103ad000130032000402420085824a0006034b00b4
:103ae00087834b00000040008180480002014900ac
:103af000838149000802520089825a000a035b0050
:103b00008b835b00f0ff3b000802420089824a0081
:103b10000a034b008b834b008d06e900edff3a0052
:103b20008482720086827200f707b2008782720078
:103b300001003200150020001e0490003e0b900092
:103b400006035400e63fb0000368a30007003200fc
:103b50000000a7000500a0008301d1000281d3006e
:103b60008180d3000080d3000603e8008301d100e8
:103b70000281d3008180d3000080d3000002eb00db
:103b80000482d2002100070003f0a1000cf0a7007e
:103b900003f0a0005d003700640247006408e10004
:103ba000570032003400be003401be00f6ff37007b
:103bb0006108e100520032006011b8006000b800f6
:103bc000f1ff370003ff270002002000fbff370052
:103bd000839f68000100e00002003d0060001000cb
:103be000e08018000300e00002003d0060011100c9
:103bf000e0811900260107004f00e00002003b00b1
:103c000060001000e080180000000600180020008e
:103c100057002000080453000d003d00060020005e
:103c200097fc2f000740e1001e00340084827200e0
:103c3000610260008301d1000281d3008180d30042
:103c40000080d3000804e800f8ff3a004700200095
:103c50006104600005047400040464000d00320077
:103c600061004000e080480060014900e0814900b7
:103c700003b8a500070032000603e8006538e1003c
:103c800004003a008301d1000281d3008180d30077
:103c90000080d300f87f20000830e10003003500e9
:103ca000080378006000b8006011b8004433dd00fc
:103cb000f300b200830173000000060068044700af
:103cc0000294be000094be00fc0447008694be002f
:103cd0008494be0009007800d30207000800780031
:103ce000d102070099007800814f70000b003b0063
:103cf0000800be00ab0207004f00b1000300370010
:103d0000f3ff2700f2ff2f006110b9004f06be003d
:103d10004f05be004f04be000080fa000000060000
:103d2000810378004c0007000001be006000b8006d
:103d30000478a30013003a006220e10015003e0061
:103d40000d0039008301d1000281d3008180d300ae
:103d50008301d1000281d3008180d3008301d1008f
:103d60000281d3008180d3000538b000c42add0071
:103d7000f300b2008381720007f0a70003f0a000f7
:103d800000000600f3ff2700f2ff2f006110b900ca
:103d9000fbff370003ff2700f7ff37001400fa008e
:103da000889fbe008a9fbe008c9fbe000004be009c
:103db0000205be00680047000a90be000890be00e1
:103dc000990207000070a7000bf0a100304320000b
:103dd0009e02900080825200b0fe2f000028e10079
:103de00011003d00b0fc2f000028e1001500340058
:103df0001e0990008e0890007e0090000501b00022
:103e00000201d1008180d3000080d3008502e80048
:103e1000fbff3a000b00e000bcff3b00600010001d
:103e2000e0801800b9ff3700f0ff2f00f1ff2700f6
:103e30000b00e000b5ff3b0001002800000020005f
:103e4000b2ff37006000b800b0ff37004f89de00d6
:103e5000820178009b023700c70ade00f107b2003a
:103e6000f50fb20008003200e1cf4200020032003c
:103e70000170a00024000500810f700001003200d5
:103e80000408050044000500810f700002003a009c
:103e9000140005008502e9000000400081c04800d0
:103ea000fcff3b000170a0002400050000000000a2
:103eb0002800fa00889fbe008a9fbe008c9fbe002b
:103ec00003866b007dff07000028a30064003a0012
:103ed0000128a30068003a000008a30062003a002d
:103ee0000108a30066003a001e009000be08900082
:103ef00081064000ed3fb100f4805700ee019000d4
:103f0000111ab8008e099000311bb8009e0990006c
:103f1000311cb800511db800f48557004600070059
:103f2000fe0190003a0007008b85e8003e00070084
:103f30008e09900040000700ee0190003400070059
:103f40008b85e800380007008e09900040000700cc
:103f50009e0990001b18b800890440000a8548009b
:103f6000fe019000340007008b85e8003800070050
:103f7000ee019000300007008e0990001b18b80079
:103f8000890440000a8548000a98a30008003a0006
:103f90000402420085824a0006034b0087834b00df
:103fa00008044c0089844c000a054d008d06e90088
:103fb00084827200850273004c3add008502720033
:103fc0000100320015002000443ade001400b20067
:103fd0004538de00cb45dd000b007000c540de003b
:103fe000cb4ddd008b8070004549de00cb55dd00f8
:103ff0000b017100c551de000d03780003ff0700bf
:1040000003f0a1000cf0a70003f0a0003fff370071
:104010001b18b8008502400006834800e0834b006f
:1040200060044c00070037001b18b800060340006e
:1040300087834800faff37001b18b8008703400049
:1040400008844800e0844c0060054d000000060034
:104050001b18b8000804400089844800faff3700a4
:104060000108a30026ff3a005800be00000000002f
:104070005801be00e2ff37000008a30020ff3a000d
:1040800009047800f8ff370007f0a2001e0137008e
:104090006022b800060220000000d0008180d2001b
:1040a0000482d2008582d2000000a00002025200e9
:1040b00083825a00030031000202420083824a00d8
:1040c0000000a1000603e900f3ff3a00000006002b
:1040d000efff07000400be0000000600020ab9005e
:1040e000001bb9000200b8008100420081004300bb
:1040f00000000600889fbe008a9fbe003004420078
:10410000b0844a0030054b0090854b006000b10040
:104110000898be000a90be000440e10005c8e10016
:1041200006d0e10007d8e10002003100680040003d
:104130001008e8004f05be004f04be000000060056
:10414000889fbe008a9fbe001004780090049000f3
:1041500020059000b00590000418540005985c00fc
:1041600006185d0007985d00110020000440e10082
:1041700005c8e10006d0e10007d8e10001003900e0
:104180008000eb00108810004f05be004f04be00f9
:10419000000006001200fa00889fbe008a9fbe0041
:1041a0008c9fbe00e0b79f00f1b79f0082bf9f00c9
:1041b00093bf9f000605be000404be000000eb0094
:1041c000d0b79f00c0b79f00b0b79f00a0b79f00b7
:1041d00090b79f00000678005fb19700cfb09700be
:1041e000820141003fb097000200e00004003d0062
:1041f000370007007e805700beff0700030037002e
:10420000330007007e805700cdff0700dfb6970020
:104210000d00e0000c0035006fb29700ffb2970070
:104220000fbb97009fbb97001000200001002000eb
:104230006011b800000272008182720002037300f4
:10424000838373001b0007000c06e80001042000b4
:10425000810f5600e0ff3a000d00e00004003d0031
:104260000802be000a03be007e805700a1ff0700bf
:104270005fa897000000e00005003a001fb2970019
:10428000afb297003fb39700cfb397000900070084
:104290006fb09700ffb097000fb997009fb99700d4
:1042a0004f06be004f05be004f04be000080fa005e
:1042b000000006000100070000000600a4b79f00f0
:1042c000b5b79f00c6b79f00d7b79f000000060094
:1042d0004f09de0082817100b3b79f004f01de00fd
:1042e0008180400082807000a1b79f008fb097004e
:1042f0004f09de00000040000200700090b79f00f0
:104300007fa897004f01de0081804000828070000e
:1043100081b79f000d0007004f3ade00000040000b
:1043200004007000f0af9f00080007000402420084
:1043300085824a0006034b0087834b00dfff07009e
:104340000802be000a03be00000006002fb297005c
:10435000bfb297004fb39700dfb39700000006008d
:10436000881f780018002000881f780089ff070048
:104370008f87e9004f04780000000600801feb00e3
:1043800084ff07008f87e90000000600889fbe00b9
:104390008a9fbe00e00f5000e08f5800e00f5900e8
:1043a000e08f59000c003d006044b8006055b80033
:1043b0000000540081805c0002015d0083815d008b
:1043c000180020001500070008003d001800070035
:1043d0000004eb00050037000004eb000f000700ad
:1043e00002003d001200070018002000dcff07005b
:1043f0000800e000060032006022b8006033b80018
:104400000000520081805a0002015b0083815b0042
:104410004f05be004f04be0000000600e00f520032
:10442000e08f5a00e00f5b00e08f5b0000000600a9
:104430006044b8006055b8000402540085825c00f6
:1044400006035d0087835d0000000600889fbe00b4
:104450008a9fbe008c1f7800e00f5000e08f58004c
:10446000e00f5900e08f59000d003d006044b80096
:104470006055b8000000540081805c0002015d00be
:1044800083815d001c0020000820e10009a8e100f4
:104490000ab0e1000bb8e1000d003d000800370054
:1044a0000006eb00e00f5200e08f5a00e00f5b00c7
:1044b000e08f5b0006003d006044b8006055b80026
:1044c0000402540085825c0006035d0087835d0062
:1044d000aaff07000c00e000060032006022b800ce
:1044e0006033b8000000520081805a0002015b0076
:1044f00083815b004f0678004f05be004f04be006d
:1045000000000600000000002800fa00889fbe009e
:104510008a9fbe008c9fbe000706780087866900d0
:104520000c003b00030478008704780008f0a10029
:1045300009f0a100840f5000858f5800860f5900a4
:10454000890f5c00030033000cf0a20001003a0068
:104550000cf0a100d9fd07006400e1005f0032000b
:10456000780147006408e100610032006c014700f7
:10457000748557003200be001201be003a04be002e
:104580001a05be001e039000be0a9000850353006a
:1045900006003d000004fd008104fd000205fd0051
:1045a0008305fd008703ea00050378000df8a300ea
:1045b0000400320060041400e0841c0060051d004b
:1045c000e0851d006022b8007d0320000d38e10069
:1045d0008006eb000b0039004433dd00f300b2002d
:1045e0008301730039003700848272000d02780065
:1045f000e10664008b85d1000a85d3008984d3004d
:104600000884d3008703e900f7ff3b00080040005f
:10461000898048000a0149008b81490004003b0061
:1046200060001000e080180060011900e0811900ae
:104630000358a300090032008d8272008482720048
:10464000610260008301d1000281d3008180d30028
:104650000080d3000603e8001b0037000348a300d6
:1046600017003a000600e000170034000603e900d6
:104670000d00a300000048008180480002014900ad
:10468000838149000348a3000f003a000600e000c0
:10469000090034000603e900000040008180480062
:1046a000020149008381490001003a000003eb0048
:1046b0000348a300f5ff32006022b8000200370073
:1046c000848272006182660050fd070003f0a10041
:1046d0000cf0a70003f0a0008cfd37006401470038
:1046e0006408e10002003a000df8a30084fd3a00de
:1046f00032007800b20078001201be0083fd37005e
:10470000889fbe008a9fbe008c9fbe000404be002e
:104710000605be00809fbe00829fbe0030000700dd
:10472000040678000800be000a01be002c00070045
:10473000840678004f03be004f02be008d4f760006
:104740007fb0970013003300f0ff2f008b8f6b00ba
:1047500006003b000d0666000c00a7000a003700ab
:1047600007f0a600100020000a003700880f520052
:10477000898f5a008a0f5b008b8f5b000300390022
:104780001000200001003e000000200007f0a700fc
:104790000000ea004f06be004f05be004f04be00f9
:1047a00000000600e48240001078a30007003200f9
:1047b000640240001178a3003400be001401be0062
:1047c000050032000330a700000006003500780025
:1047d000b50078001501be000330a00000000600ff
:1047e00005ff270005826100070032000428e10070
:1047f00001003200240005000600070001003a0015
:10480000440005000408050002000700f9ff3a0013
:10481000140005006f826100810270008502710042
:1048200085027200000006005002be00e400500045
:104830005003be004439de00f700b200f37f2000d1
:1048400003016100090032000218e10016003a007d
:1048500085017200830173008381730000082000ca
:1048600015003a0040002000130037008501720057
:10487000830173008381730005003a0004a8be0021
:1048800006a8be00100020000b0037000201e9005e
:104890000402420085824a0006034b0087834b00d6
:1048a0000748a300f9ff32000740a00004a8be009b
:1048b00006a8be002000200080009800920098000a
:1048c00000000600881f7800030478000300e00061
:1048d00007003d0060001000e08018006001190032
:1048e000e081190002003b0001f02d0003003700b9
:1048f0000400070008f0a70003f0a0004f047800b0
:1049000000000600889fbe00008270000402710053
:10491000048271002400320036432000c5002000cc
:104920008383cf000a0039000541b1008283cf00a4
:10493000070039000541b1008183cf000400390030
:104940000541b1008083cf00010039000541b1006d
:1049500085c353006022b800120032000a003b00f9
:1049600084827200610260008301d1000281d30061
:104970008180d3000080d3000603e8008743e8006d
:10498000f7ff3a0007003700000040008180480030
:1049900002014900838149000603e9008743e900d9
:1049a000f9ff3a0099fc07004f04be000000060022
:020000040000fa
:1049b000323200003630000030000000616100003b
:0449c00041000000b2
:020000040000fa
:1049c4000000fa002188a9002168a90080002000c5
:1049d400001188002222ef00f00520004011880019
:1049e400000121003080880000012100208088001f
:1049f40050072100108088005007210000808800a3
:104a04000870ef00e052220007000700c0542200a3
:104a1400140007002168a80021e2a8002342a8008e
:104a24000080fa00000006000200fa00000f78007f
:104a34001e0078000000e00003003a00e05222006b
:104a440050808800020037009e0078005180880062
:104a54000080fa00000006000000fa000080fa005e
:104a6400000006000200fa00000f78001e00780023
:104a74000000e00003003a00c05422006080880077
:104a8400020037009e007800618088000080fa00f0
:104a9400000006000000fa000080fa000000060092
:104aa4000200fa000040eb00004f78000000000014
:104ab4001180800000808000808f5000fcff320055
:104ac40010808000104f7800108080000000e80003
:104ad4001080880011808000a00d2100808f50007c
:104ae40002003a0050072100108088001e40780020
:104af4000080fa00000006000200fa00004f78006f
:104b0400000000001c0007000004a2000004e000f4
:104b1400fcff3a00208080001e487800208080003e
:104b24000000e800208088002180800050072100d8
:104b3400808f500002003a0000012100208088008c
:104b44002188a8000080fa00000006000000fa0096
:104b540011808000008080000080680000f0a700c1
:104b64000000ea000000ea004f00de000040780088
:104b74000080fa00000006000400fa003180800082
:104b840011079800218080001e009000808f500043
:104b9400060031009e0090002080800000805000bc
:104ba4000000e900000f7800050037009e00900027
:104bb40020808000008050004006b000000f780084
:104bc4001e00780000f0a7000000ea000000ea00e0
:104bd4004f00de00004078000080fa00000006006c
:104be4000000fa002180800030808000808f500017
:104bf40009003a00111180000010200000806000bc
:104c040000f0a7000000ea000000ea004f00de0008
:104c140000407800010037000040eb000080fa00fb
:104c2400000006000400fa000180800011079800cb
:104c3400108080009e009000808f5000060031009c
:104c44009e00900010808000008050005006b0004c
:104c5400000f7800040037009e0090001080800050
:104c640000805000000f7800f00f20009e007800b4
:104c7400808f50000200360000c0eb0002003700b5
:104c84001e007800004078000080fa000000060052
:104c94000400fa0031808000110798002180800010
:104ca4001e009000808f5000060031009e0090008e
:104cb40020808000008050000000e900000f780090
:104cc400050037009e009000208080000080500086
:104cd4004006b000000f7800f00f20009e0078001e
:104ce400808f50000200360000c0eb000200370045
:104cf4001e007800004078000080fa0000000600e2
:104d04000800fa002007980031079800c5ff070043
:104d14000080fb00000f78003e0090009e0f5000c2
:104d240002003100be009000010f78000000eb008b
:104d3400100798000900370059ff0700ae009000e3
:104d4400804878002e0090000000e80020079800ba
:104d54001e0090000000e800100798001e0090005c
:104d64009e0f5000f4ff39001e0078000080fa0006
:104d7400000006000800fa00200798003107980098
:104d8400c3ff07000080fb00000f78003e00900086
:104d94009e0f500002003100be009000010f780009
:104da4000000eb0010079800090037002e00900067
:104db40010407800ae0090008100e80021079800c0
:104dc4004dff07001e0090000000e8001007980047
:104dd4001e0090009e0f5000f4ff39001e00780062
:104de4000080fa00000006000400fa000000eb0056
:104df400000f78008bff070020479800a4ff0700ee
:104e0400304798002e4090000080fb000000e00036
:104e14000400320051062000810f500003003200cc
:104e2400040037001e20a000040037001e00a0006c
:104e3400020037001e10a000000000003e40900059
:104e44000080fb000000e000040032005106200056
:104e5400810f500003003200040037001e30a00010
:104e6400020037001e40a000000000001e00780071
:104e74000080fa00000006000400fa001007980001
:104e8400118080001e009000008f40000200370057
:104e9400b1f92f001e8f4000a00d21009e00780064
:104ea400808f5000faff3e001e007800104078000a
:104eb4000080fa00000006000000fa0059ff070015
:104ec4000080fb000000e9004f00de000040780095
:104ed4000080fa00000006000000fa006cff0700e2
:104ee4000080fb000000e9004f00de000040780075
:104ef4000080fa00000006000000fa001011800093
:104f04000080fa00000006000000fa0060ff0700bd
:104f14000004e00010003200318080002080800016
:104f2400808f5000060036003080800080007800ba
:104f340020808000008050000000e9000700370056
:104f44003080800080007800208080000080500045
:104f54004006b000010037000000eb000080fa00ba
:104f6400000006000000fa002eff07000004e00025
:104f7400100032001180800000808000808f50007b
:104f840006003600108080008000780000808000d9
:104f9400008050000000e900070037001080800006
:104fa4008000780000808000008050004006b0003f
:104fb400010037000000eb000080fa00000006004a
:104fc4000000fa0021e2a8002342a8000080fa00b1
:104fd400000006000000fa0021e2a9002342a90013
:084fe4000080fa000000060045
:020000040000fa
:104fec0010100000ca00000080000000001000003b
:104ffc000e00000080000000fe11000020000000e8
:10500c00800000000e100000020000008200000072
:10501c00ffff0000da100000880000008200000092
:10502c00010000000000110001110000110011002e
:10503c000011000011f01000000000000000000042
:10504c000000000000000000000000000000000054
:10505c0000000000000208000101280011291100c5
:10506c002811280011281100281118001100000027
:10507c000000000000000000000000000000000024
:10508c000000000000000000000002000802020006
:10509c0050115100115011005011500011501100bd
:1050ac0040110000000000000000000000000000a3
:1050bc0000000000000000000000000000000000e4
:1050cc00da100200112a110000000000000000009c
:1050dc0000000000000000001e1200001a0000007a
:1050ec0082000000686a6c00747a4c0000000100b9
:1050fc000002000004000800001000000000200066
:10510c002b2d2300300000003c1200000200000098
:10511c00800000003e12000002000000820000002f
:10512c0004000000381200000400000080000000a1
:10513c00621100007a000000820000006e616e00b7
:10514c00004e41004e0069006e660000494e46005c
:10515c0000303100323334003536370038396100d5
:10516c006263640065660000303132003334350010
:10517c0036373800394142004344450046000000b0
:10518c0000000000000024004000000000000000af
:10519c00005940000000000000008800c3400000df
:1051ac000000000084d7970041008000e0377900b0
:1051bc00c3414300176e0500b5b5b8009346f50022
:1051cc00f93fe900034f38004d321d0030f948001b
:1051dc0077825a003cbf73007fdd4f0015750000cd
:1051ec00dc1100002200000082000000303132008f
:1051fc0033343500363738003941420043444500da
:10520c00460030003132330034353600373839003f
:10521c0061626300646566000000000040120000db
:10522c00020000008200000030000000421200006a
:0c523c00020000008000000000000000e4
:020000040000fa
:105248000000fa00003a80000080fa000000060022
:105258000200fa00faff0700000f78001e0078002d
:10526800240007000004e0000200320000002800cb
:10527800710007001e0078002a0007000004e00003
:1052880002003200000024006b0007001e007800b6
:10529800320007000004e000020032000020200075
:1052a800650007001e0078003a0007000004e000cf
:1052b80002003200000820005f0007001e0078008e
:1052c800420007000004e000020032000004200051
:1052d800590007001e0078004a0007000004e0009b
:1052e8000200320000012000530007000080fa008d
:1052f800000006000400fa00100798000040eb00c8
:10530800004f78001e0090000000e00002003d0001
:1053180010c0b300004f78001e4078000080fa00eb
:10532800000006000400fa00100798000040eb0097
:10533800004f78009e00900000002400008060006c
:105348000000e0000200320010c0b300004f7800f7
:105358001e4078000080fa00000006000400fa00f1
:10536800100798000040eb00004f78009e00900066
:1053780000202000008060000000e00002003200f1
:1053880010c0b300004f78001e4078000080fa007b
:10539800000006000400fa00100798000040eb0027
:1053a800004f78009e0090000008200000806000f8
:1053b8000000e0000200320010c0b300004f780087
:1053c8001e4078000080fa00000006000400fa0081
:1053d800100798000040eb00004f78009e009000f6
:1053e80000042000008060000000e000020032009d
:1053f80010c0b300004f78001e4078000080fa000b
:10540800000006000400fa00100798000040eb00b6
:10541800004f78001e009000700060000000e0005f
:105428000200320010c0b300004f78001e40780020
:105438000080fa00000006000200fa00000f780061
:105448009e80ea00003a800000806000003a8800f0
:105458000080fa00000006000000fa004027ef0074
:105468000080fa00000006000000fa00042eef0099
:10547800142eef00242eef00342eef001000200031
:1054880020728800542eef00642eef00f06f2c007d
:10549800007088000080eb0080708800e001270021
:1054a800007188000080eb0080718800e03f2000d8
:1054b80000728800f013230080728800303c2f00af
:1054c800007388000c2eef001c2eef002c2eef002e
:1054d8003c2eef004c2eef005c2eef006c2eef0000
:1054e8000a2eef001a2eef002a2eef003a2eef00b8
:1054f8004a2eef005a2eef006a2eef00062eef001c
:10550800362eef00562eef00662eef0000642000c6
:1055180070708800f0f32f00f0708800e00126001a
:1055280070718800000c2000f0718800e03f2000b6
:1055380070728800003c200070738800113a800067
:10554800f00b20000081600060042000710520003d
:1055580023742000804978008149780082497800c6
:105568002136800000f82f00008060007001b30031
:105578002036880041348000f00f2c000080600045
:105588000080a00040348800103a800000017800b4
:105598000260a00060042000710520002374200030
:1055a8008049780081497800824978000080fa00b3
:1055b800000006000c00fa00e200470004000900a1
:1055c8008018eb005a0007000000eb00000f78007d
:1055d80080062000801f7800bded07008f87e90056
:1055e80004003700804d2a00801f7800b8ed0700be
:1055f8008f87e9002ffe07000004a2000004e000e6
:10560800f8ff3a000d003700e04d2a00801f7800af
:10561800afed07008f87e90020fd07008040780084
:105628001e80e800017778001e80e8006e40780050
:105638000000fb0034ed07001e0fe8001dfe070008
:105648000004e000f0ff3a0004003700804d2a0013
:10565800801f78009eed07008f87e90015fe070080
:105668000004a2000004e000f8ff3a00d6ff37006b
:105678000000fa0000042300203a88004827ef00c1
:105688004e27ef0020032000303a88000020220037
:10569800c03a88005a27ef006027ef006227ef0022
:1056a8006427ef006627ef006827ef006a27ef00fe
:1056b8006c27ef007200200080072000a10920005d
:1056c8003374200080497800814978008249780045
:1056d8000001eb0060042000710520002374200005
