:020000040000fa
:080000000002040000000000f2
:020000040000fa
:04000800f6030000fb
:020000040000fa
:04000c0038040000b4
:020000040000fa
:040010009804000050
:020000040000fa
:0400140016040000ce
:020000040000fa
:040018005804000088
:020000040000fa
:04001c007804000064
:020000040000fa
:04002000b804000020
:020000040000fa
:04002400e4040000f0
:020000040000fa
:04002800e4040000ec
:020000040000fa
:04002c00e4040000e8
:020000040000fa
:04003000e4040000e4
:020000040000fa
:04003400e4040000e0
:020000040000fa
:04003800e4040000dc
:020000040000fa
:04003c00e4040000d8
:020000040000fa
:04004000e4040000d4
:020000040000fa
:04004400e4040000d0
:020000040000fa
:04004800e4040000cc
:020000040000fa
:04004c00e4040000c8
:020000040000fa
:04005000e4040000c4
:020000040000fa
:040054007403000031
:020000040000fa
:04005800120300008f
:020000040000fa
:04005c00e4040000b8
:020000040000fa
:04006000e4040000b4
:020000040000fa
:04006400e4040000b0
:020000040000fa
:04006800e4040000ac
:020000040000fa
:04006c00e4040000a8
:020000040000fa
:04007000e4040000a4
:020000040000fa
:04007400e4040000a0
:020000040000fa
:04007800e40400009c
:020000040000fa
:04007c00e404000098
:020000040000fa
:04008000e404000094
:020000040000fa
:04008400e404000090
:020000040000fa
:04008800e40400008c
:020000040000fa
:04008c00e404000088
:020000040000fa
:04009000e404000084
:020000040000fa
:04009400e404000080
:020000040000fa
:04009800e40400007c
:020000040000fa
:04009c00e404000078
:020000040000fa
:0400a000e404000074
:020000040000fa
:0400a400e404000070
:020000040000fa
:0400a800e40400006c
:020000040000fa
:0400ac00e404000068
:020000040000fa
:0400b000e404000064
:020000040000fa
:0400b400e404000060
:020000040000fa
:0400b800e40400005c
:020000040000fa
:0400bc00e404000058
:020000040000fa
:0400c000e404000054
:020000040000fa
:0400c400e404000050
:020000040000fa
:0400c800e40400004c
:020000040000fa
:0400cc00e404000048
:020000040000fa
:0400d000e404000044
:020000040000fa
:0400d400e404000040
:020000040000fa
:0400d800e40400003c
:020000040000fa
:0400dc00e404000038
:020000040000fa
:0400e000e404000034
:020000040000fa
:0400e400e404000030
:020000040000fa
:0400e800e40400002c
:020000040000fa
:0400ec00e404000028
:020000040000fa
:0400f000e404000024
:020000040000fa
:0400f400e404000020
:020000040000fa
:0400f800e40400001c
:020000040000fa
:0400fc00e404000018
:020000040000fa
:04010000e404000013
:020000040000fa
:04010400e40400000f
:020000040000fa
:04010800e40400000b
:020000040000fa
:04010c00e404000007
:020000040000fa
:04011000e404000003
:020000040000fa
:04011400e4040000ff
:020000040000fa
:04011800e4040000fb
:020000040000fa
:04011c00e4040000f7
:020000040000fa
:04012000e4040000f3
:020000040000fa
:04012400e4040000ef
:020000040000fa
:04012800e4040000eb
:020000040000fa
:04012c00e0030000ec
:020000040000fa
:04013000e4040000e3
:020000040000fa
:04013400e4040000df
:020000040000fa
:04013800e4040000db
:020000040000fa
:04013c00e4040000d7
:020000040000fa
:04014000e4040000d3
:020000040000fa
:04014400e4040000cf
:020000040000fa
:04014800e4040000cb
:020000040000fa
:04014c00e4040000c7
:020000040000fa
:04015000e4040000c3
:020000040000fa
:04015400e4040000bf
:020000040000fa
:04015800e4040000bb
:020000040000fa
:04015c00e4040000b7
:020000040000fa
:04016000e4040000b3
:020000040000fa
:04016400e4040000af
:020000040000fa
:04016800e4040000ab
:020000040000fa
:04016c00e4040000a7
:020000040000fa
:04017000e4040000a3
:020000040000fa
:04017400e40400009f
:020000040000fa
:04017800e40400009b
:020000040000fa
:04017c00e404000097
:020000040000fa
:04018000e404000093
:020000040000fa
:04018400e40400008f
:020000040000fa
:04018800e40400008b
:020000040000fa
:04018c00e404000087
:020000040000fa
:04019000e404000083
:020000040000fa
:04019400e40400007f
:020000040000fa
:04019800e40400007b
:020000040000fa
:04019c00e404000077
:020000040000fa
:0401a000e404000073
:020000040000fa
:0401a400e40400006f
:020000040000fa
:0401a800e40400006b
:020000040000fa
:0401ac00e404000067
:020000040000fa
:0401b000e404000063
:020000040000fa
:0401b400e40400005f
:020000040000fa
:0401b800e40400005b
:020000040000fa
:0401bc00e404000057
:020000040000fa
:0401c000e404000053
:020000040000fa
:0401c400e40400004f
:020000040000fa
:0401c800e40400004b
:020000040000fa
:0401cc00e404000047
:020000040000fa
:0401d000e404000043
:020000040000fa
:0401d400e40400003f
:020000040000fa
:0401d800e40400003b
:020000040000fa
:0401dc00e404000037
:020000040000fa
:0401e000e404000033
:020000040000fa
:0401e400e40400002f
:020000040000fa
:0401e800e40400002b
:020000040000fa
:0401ec00e404000027
:020000040000fa
:0401f000e404000023
:020000040000fa
:0401f400e40400001f
:020000040000fa
:0401f800e40400001b
:020000040000fa
:0401fc00e404000017
:020000040000fa
:04020000e404000012
:020000040000fa
:04020400e40400000e
:020000040000fa
:04020800e40400000a
:020000040000fa
:04020c00e404000006
:020000040000fa
:04021000e404000002
:020000040000fa
:04021400e4040000fe
:020000040000fa
:04021800e4040000fa
:020000040000fa
:04021c00e4040000f6
:020000040000fa
:04022000e4040000f2
:020000040000fa
:04022400e4040000ee
:020000040000fa
:04022800e4040000ea
:020000040000fa
:04022c00e4040000e6
:020000040000fa
:04023000e4040000e2
:020000040000fa
:04023400e4040000de
:020000040000fa
:04023800e4040000da
:020000040000fa
:04023c00e4040000d6
:020000040000fa
:04024000e4040000d2
:020000040000fa
:04024400e4040000ce
:020000040000fa
:04024800e4040000ca
:020000040000fa
:04024c00e4040000c6
:020000040000fa
:04025000e4040000c2
:020000040000fa
:04025400e4040000be
:020000040000fa
:04025800e4040000ba
:020000040000fa
:04025c00e4040000b6
:020000040000fa
:04026000e4040000b2
:020000040000fa
:04026400e4040000ae
:020000040000fa
:100400006f1a21000eff27000e0188000000000077
:10041000000020000000e000020032000001200087
:100420002002880014000700b80107000000e00067
:1004300003003a006037210001002000020037006d
:100440000000200001002000810f70000100320038
:100450000f000700000020000000e0000200320052
:100460000000020000000000cc14020000000000a8
:100470000040da000000fe00c00220000000e000a2
:1004800002003200002020009001880000000600d9
:10049000a1028800800478000000eb001f003700f4
:1004a000e284440054a0b4009905ba00e2844400f8
:1004b00054a0b4009906ba00e284440054a0b400e9
:1004c0000006eb00476fde00fd07b200ae018800ba
:1004d000636ce10003003a000ad801000000eb0061
:1004e0000e003700606ce10008003a00004deb00a0
:1004f0000a05e800020039003420ec000af0a000f0
:100500008b05e900f9ff3e00040037006168e10057
:10051000010032000086eb000b00070019c7ba008b
:100520000e04e0001905ba0003003a000a00e000da
:10053000dbff3a0000000600fe07b200ae028800b2
:100540008a047800f5ff37000cd0a300e20f4d00bd
:100550001c00390089027800354dba000a05e80010
:10056000020039003420ec000af0a0008b05e900fd
:100570000f003200254dba000a05e80002003900dc
:100580003420ec000af0a0008b05e90008003200de
:100590000c00e0000600320015cdba000a05e800a4
:1005a000020039003420ec000af0a0008b05e900bd
:1005b0008984e80054a0b4000b00e000e2ff3a0098
:1005c000000006009902ba00055d78008b05e9007d
:1005d000f7ff3200c82ade00055d78008b05e900d0
:1005e000f3ff32000c00e000f1ff320019ddba0029
:1005f000eeff37009a0f040000000000b80f04005f
:10060000000000008805040000000000b20704009c
:100610000000000000000400000000006608040064
:10062000000000003600f800809fbe00829fbe00e0
:10063000849fbe00869fbe000000fa0050808000ac
:100640000000e00002003200508080000000010045
:100650003180800020808000808f500002003a00ae
:100660002188a900190037000188a900100037006f
:1006700030808000904078008180fb00211188004c
:100680000000e800308088003180800050072100a1
:10069000808f500002003a00000121003080880065
:1006a0003180800020808000808f50000600320062
:1006b0001111800000202000008060000000e00098
:1006c000ebff320001003700000000000080fa005c
:1006d0004f03be004f02be004f01be004f00be00e0
:1006e0003600f900004006003600f800809fbe008a
:1006f000829fbe00849fbe00869fbe000000fa005d
:10070000608080000000e000020032006080800015
:10071000000001000168a9001e0037000080800071
:10072000311180008140780001487800018080000c
:10073000900d2100808f5000090032000080800061
:100740008000e80010808000808f5000040032009c
:10075000008080000000e800008088000d00370065
:1007600001808000900d2100808f500007003a002a
:100770001180800050072100808f5000030032005c
:1007800050072100008088000200370010c0b3002d
:1007900008f0b70010118000610060000000e00068
:1007a000deff3a000080fa004f03be004f02be0099
:1007b0004f01be004f00be003600f90000400600a9
:1007c000801f78000000fa001011800062006000b5
:1007d0000000e000010032002222a9000828a90040
:1007e0000080fa004f007800004006003600f80054
:1007f000809fbe00829fbe00849fbe00869fbe0079
:100800000000fa00c028a9000000eb00d308070090
:100810000080fa004f03be004f02be004f01be0031
:100820004f00be003600f900004006003600f80018
:10083000809fbe00829fbe00849fbe00869fbe0038
:100840000000fa00ca080700c048a90010002000f4
:10085000c20807000080fa004f03be004f02be002e
:100860004f01be004f00be003600f90000400600f8
:100870003600f800809fbe00829fbe00849fbe00ad
:10088000869fbe000000fa00c068a900200020007a
:10089000b20807000080fa004f03be004f02be00fe
:1008a0004f01be004f00be003600f90000400600b8
:1008b0003600f800809fbe00829fbe00849fbe006d
:1008c000869fbe000000fa00c088a900300020000a
:1008d000a20807000080fa004f03be004f02be00ce
:1008e0004f01be004f00be003600f9000040060078
:1008f0003600f800809fbe00829fbe00849fbe002d
:10090000869fbe000000fa00c0a8a9004000200099
:10091000920807000080fa004f03be004f02be009d
:100920004f01be004f00be003600f9000040060037
:100930003600f800809fbe00829fbe00849fbe00ec
:10094000869fbe000000fa00c608a90070002000c3
:10095000820807000080fa004f03be004f02be006d
:100960004f01be004f00be003600f90000400600f7
:100970003600f800809fbe00829fbe00849fbe00ac
:10098000869fbe000000fa00214680000002200081
:10099000008060000000e00003003200c4a8a9004d
:1009a000900020006d080700204680007000600065
:1009b0000000e00003003200c488a900a00020006d
:1009c00066080700ffff37000040da000000fe0065
:1009d0000a00fa0011002000b1bf9f00c0bf9f00b5
:1009e0006a805700c90407004fb897000080fa00da
:1009f000000006000a00fa0051002000b1bf9f006d
:100a0000c0bf9f006a805700c20407005fb897000c
:100a10000080fa0000000600889fbe008004780075
:100a2000208d80000000e00004003a000e00070066
:100a30000084eb000000e00008003500288d8000f5
:100a40000900e0000500320009004400060007002c
:100a50000000e00001003d000084eb000800780089
:100a60004f04be0000000600800078000100e00096
:100a700003003a0000002000208d880000000500df
:100a80000080eb0002002000828f500002003e0038
:100a9000218d88000000eb00000006000a00fa002b
:100aa000200798003107980042079800be00900088
:100ab000110798000000eb00000f78000c003700d1
:100ac00000000000630507000004a2000004e0002d
:100ad000fcff3a001e009000104078009e0090003d
:100ae0008100e800110798003a0507001e0fe80092
:100af0004e0090009e007800808f5000f0ff39007b
:100b00004e0090000080fa00000006000000050082
:100b1000889fbe00000478000100780082047800fd
:100b20008801780009017800110020000e000700fc
:100b3000890f5000010032000004eb00080078002b
:100b40004f04be00000006000000fa00e8815700d4
:100b50004fb997002110210080582000250207007e
:100b60000080fa0000000600889fbe008a9fbe0039
:100b70008c9fbe008e1f780000067800010478006c
:100b800002007800830478008881b90002077800a9
:100b90000e00e000420032000800e0004100320098
:100ba0008e057800c900900069009000808f500089
:100bb0000400390009007800500007000000e00040
:100bc0002900350000402000190060000a003200b2
:100bd0000b017800a10020000c007800360007000f
:100be000800678000d00e000060032006105160066
:100bf0000a854600040037000b0578008006eb00ec
:100c0000010037000b05780049009000e9009000d2
:100c1000808050008a8f500002003100010578006a
:100c20008006eb000a0178008c0078002c00070099
:100c30008a855500490090000a004000c0049800d1
:100c40000d00e0000400320009007800d600070023
:100c50000000e00004003a000b00e0000200320057
:100c60000a064600cfff3700008020001900600010
:100c70000200320009007800cb00070000c020000d
:100c8000190060000200320049009000e004980062
:100c90008b055700110009008885d8000100370036
:100ca0000000eb004f0778004f06be004f05be0066
:100cb0004f04be000000060003003700b0cf100054
:100cc000050032000201e900800178000200e00026
:100cd000faff3a000000050003007800000006005b
:100ce0008001780002003700b15978000201e90064
:100cf0000200e000fcff3a0000000600889fbe00f2
:100d00008a1f780000047800c800900068019000f5
:100d10000000eb00828f50003c0039001800780082
:100d20002200290002016000e20f5100070032009a
:100d3000012020000000e000010035000120240017
:100d4000008c70000080eb003000370002002600ad
:100d500002006000820f500009003a003800900045
:100d6000808f500006003900080078008e000700d0
:100d7000800078000080eb000100e00023003a00d2
:100d80001805780000c020000000650018003a0037
:100d9000a80490006002200008004000808f5400ea
:100da00013003a00002020004a02070020049800a7
:100db0000000e00005003a0029049800490498006a
:100dc0008904e80039049800080037000a60a00090
:100dd0000a0c780040049800012020008080400028
:100de00031049800400c9800500c98000c0007004b
:100df000280090005004980038009000600498008b
:100e000000002600180c70000000eb004f05780071
:100e10004f04be0000000600207b20009e0037002b
:100e2000881f7800081a21001804e00003003a0027
:100e3000f9ff070020c0b300004c78004f04780091
:100e400000000600889fbe000004780008007800bb
:100e5000550007008004780000042000180060009e
:100e60000200320028009000b50107000000eb00ee
:100e700020049800384090000004e0000500350090
:100e80000000fb00d2fe07000000e000010032007d
:100e90008084eb00181090000000e0000800320091
:100ea000d4fe07000000e000010032008084eb0067
:100eb00018109000a20107000000eb001014980029
:100ec0000008200018006000150032000001eb004f
:100ed0006000b8000202d000231521000302420086
:100ee000940f140005003a00000040008180480083
:100ef000008041000008eb00060037006100400060
:100f0000e08048000201e800e80f5000e08f580040
:100f1000f0ff3a0008007800890107000e00370052
:100f2000000c780000c0eb00304498006002200004
:100f300008004000200498004004980050049800e5
:100f4000400c980060049800500c980070049800c1
:100f500076004400000c9800090078004f04be00a1
:100f600000000600881f78000004eb006140b80014
:100f7000e2ff2f00f3ff2f00ac0307000216210051
:100f800080004100110078000000e0000100320004
:100f9000acff07000804e800e80f5400f3ff3a0034
:100fa0004f04780000000600889fbe00000478000f
:100fb0000800e00010003a008004eb00090478000b
:100fc0008800d0002015210000804000100078002b
:100fd0000000e00004003200f3ff07000000e00022
:100fe00001003d008084eb000804e800e80f540095
:100ff000f3ff3a00250037000000220018006000cf
:101000008004eb0021003200a80490000f0037009c
:1010100009015100384090000000fb008900780071
:101020009efe07000000e00007003c002800900042
:101030004004980060049800500c98001890a0009c
:101040008084eb0011003700808444004801900048
:10105000828f5400eeff3900280090004004980071
:101060009800780002c020000281600001003a0070
:101070003800900001e8a3000200320060049800ec
:1010800001003700500c98008004eb000900780044
:101090004f04be0000000600010020000100e00037
:1010a00009003200010080000100e000060032006b
:1010b0008100e900010088008100d000020080006a
:1010c000828040008008780000000600889fbe00f3
:1010d000000478000203be00810478000802780052
:1010e00089017800120020000600be009b02070064
:1010f000890f5000010032000004eb000800780066
:101100004f04be00000006006800fa00889fbe0081
:101110008a9fbe0080047800010478008205780070
:10112000030578008400780000f92f000f004000cc
:1011300088020700d98f9f00fb8f9f000000eb0003
:10114000a09f9f00e88f9f009a84fb000904fb008a
:101150008904ea00cf4cde0050022000800f5400ca
:101160000d003200e18f54000b003a0009017800b5
:101170008a0078007f889700df89970003000100cc
:10118000f08f9f000000e000950032002f9897003c
:101190000000e800a09f9f000905450050022000c4
:1011a000800f5400040032000800e000e6ff3a001f
:1011b0002f9897008b0037000000eb00809f9f0066
:1011c000f0979f00e0979f00d0979f00c0979f00e7
:1011d000b0979f00070037006119210001005000ff
:1011e00000004000a1182100808040004f98970027
:1011f00011007000c09f9f000a0478000805780065
:10120000ba4478008900fb00601921005b010700e7
:101210000000e000f0ff3a00a1c2b30081cf54000b
:101220000e003a008f8897000180e900808f9f00b0
:1012300010007800b09f9f000000e00005003d0016
:101240000000ea00b09f9f004f9897000020a00088
:10125000c09f9f000804e80010003700b09f9f0067
:10126000880078000000eb0005003700f3ff27003e
:10127000830f500002003200ea00b9000000410074
:1012800001047800880078003101fb000203b100fe
:10129000e90f5100f5ff3600b09f9f00e0c2b30098
:1012a000984f1000020032000080eb001900370058
:1012b000a0c2b300d84f100007003a008f889700f3
:1012c0000180e900808f9f0010007800909f9f00b0
:1012d0000804e800100037000000eb00909f9f001a
:1012e0008800780005003700f3ff2700830f5000c7
:1012f00002003200ea00b900000041000104780059
:10130000880078003101fb000203b100e90f5100b1
:10131000f5ff3600909f9f00984478008900fb00fd
:1013200020182100150107000000e0000200320033
:101330000804e800010037008044eb00a97f9f000b
:1013400080c6b30080cf540006003a0098cf140046
:1013500010003a0066405000a07f9f000804e8009b
:101360000c003700c0c6b30080cf540009003a001b
:1013700098cf140007003a0067404000d84f100093
:1013800002003a006e4050000100370010c7b30061
:10139000a07f9f001801fb00c3fb2f008f8141003d
:1013a00001f92f008f80400020f92f000f0040002e
:1013b000150007000000e00009003a00c1fb2f0003
:1013c0008f80400020f92f000f0040000701070028
:1013d0000000e000020035000805e8005aff370071
:1013e0000080eb004f05be004f04be000080fa00f5
:1013f00000000600030278008201780001017800f5
:101400006186200040ff3700889fbe008a1f780059
:101410000004780030c5b300804f5100080032004e
:1014200030c7b300804f51000500320051c2b300f5
:1014300028089000814f510036003a0033003700f1
:101440000869900050c6b300804f51001b003a005d
:10145000110178006400510080087800900090002d
:1014600010007800000c9800110c98008811900072
:101470000300e00007003d008081eb000001eb006d
:101480004f0207000001be00880890008100510053
:10149000080037000001eb004902070000817000de
:1014a000030032000809900082005000010037005c
:1014b00088109000410c98001d0037001180e90051
:1014c00080087800100578007a049800881490004d
:1014d0000900e00004003d000a007800b3000700a6
:1014e0008004780007003700090178008000eb00d5
:1014f0000a007800f0fd07000000e0000100320063
:101500008a045000490c980009003700808141008e
:1015100004003700808141000204e00001003a002d
:1015200001417800824978000000e800200c980012
:101530000000eb004f0578004f04be0000000600dd
:101540000000e0002f003200c0017800e38f51005e
:101550002c0036000308a3002a003a00f18c80001a
:101560000100e00002003200810f50000400310051
:1015700011009800f08c8800160037008200780077
:10158000110190000200e00002003200800f5100c3
:10159000faff39001102780084824000850f500064
:1015a00018003900808f520003003a00830842007f
:1015b00001007800070037000200e000030032005d
:1015c00083014000830f51000e0039001200980083
:1015d00090009800900090000100e00009003200a7
:1015e00010014000828f500006003a00c21921000d
:1015f0000009eb00100178001108410091009000f3
:101600001100980000000600889fbe0000047800ca
:10161000e18c80000100e00002003200010078004f
:101620000d003700f18c8000e01921000400370024
:10163000910f5400250036000180e80091009000d1
:101640000100e000faff3a0010003700920f54004a
:101650001e0036000280e800100178000200e00061
:10166000faff3a0011017800f18c8000e0192100a6
:1016700004003700910f5400140036000180e80088
:1016800091009000828f5000faff3a00198d80007f
:10169000888f540001003100880478000900780028
:1016a000480007000000e00004003a00888f540062
:1016b000050032008904d100f5ff370009187800d1
:1016c0009fff0700d2ff37000000eb004f04be0071
:1016d00000000600881f7800630440000800a10095
:1016e0008000eb00800f540021003600e30f54000f
:1016f00001003e004800200008007800c2ff0700fb
:101700008000eb000000e00019003200900078003b
:101710009101780064815100880f5100030031006d
:10172000110190000208780007003700088140008e
:1017300002087800910190001301980010017800d0
:101740001109140088087800100178000000eb00ef
:101750000200e00004003200920190000300e0006b
:10176000010032000280e800e08c88008180e800ff
:10177000010078004f0478000000060002003700e6
:101780000304e00006003200000178000200780047
:10179000b041780081cf5100f9ff3a0001003700d5
:1017a0000001eb00020078000000060080007800d5
:1017b000010178003104e000fdff3a000000510013
:1017c00000000600800078000000eb000100e0004f
:1017d00005003400010078008ffc0700e10f400095
:1017e00001003a000000eb00000006000400fa00cf
:1017f000889fbe008a9fbe008c1f7800000478007e
:1018000001067800a81490002808900080845400f5
:101810003808900080845400480890008084540068
:101820005808900080845400680890008084540018
:1018300078089000808454000002220090bf9f002e
:1018400000032300a0bf9f00381090000028a300d1
:1018500015003a000900e000130034000905780083
:101860008a057800e20f5500010036002b002000a9
:10187000c80190000b017800ee80570068009000ce
:1018800003000100600498000000e000aa0032009c
:10189000181090000b004000101498000b05550024
:1018a0004240a900eeff3c00280990000200e00041
:1018b0000c003400c80190008c0078006800900093
:1018c00003000100600498008080eb000000e0004d
:1018d0009a00320098109000280890000080400084
:1018e00010149800380d90000a00e0001100340038
:1018f0008a057800e20f5500010036002b00200019
:10190000c80190000b017800ec805700680090003f
:1019100003000100600498000000e000860032002f
:10192000181090000b004000101498000b05550093
:10193000edff370008699000c808900050c6b3005a
:10194000804f510008003a000100e000150034000b
:1019500058029000080990009809900068009000d3
:1019600004000100070037000100e0000d00340012
:10197000c801900001017800f80090006800900014
:1019800003000100600498008080eb000000e0008c
:101990006a003200981090004808900000804000d3
:1019a00010149800580d90000a00e0001100340057
:1019b0008a057800e20f5500010036002b00200058
:1019c000c80190000b017800ec805700680090007f
:1019d00003000100600498000000e000560032009f
:1019e000181090000b004000101498000b055500d3
:1019f000edff3700086990006808900051c6b300f9
:101a0000814f51000d003a000000e0001c0034003e
:101a100078019000c8089000010141006111b800f0
:101a2000828fd2008381d20058029000800078001b
:101a30006800900004000100090037000000e00089
:101a40000f00340078019000c80890008100410028
:101a5000c8019000000178006800900003000100b8
:101a6000600498008080eb000000e000330032004a
:101a700098109000680890000080400010149800b2
:101a8000780d90000a00e000110034008a0578000b
:101a9000e20f5500010036002b002000c801900025
:101aa0000b017800ec8057006800900003000100f3
:101ab000600498000000e0001f0032001810900041
:101ac0000b004000101498000b055500edff370087
:101ad000381090008000eb000028a30017003200af
:101ae0000900e0001500340009057800e28f540079
:101af000010036002a002000c80190000a01780089
:101b0000ee80570068009000030001006004980018
:101b10000000e00008003200181090000a004000a9
:101b2000101498008a8454004240a900eeff3c0043
:101b30008000eb00010037008080eb00010078009e
:101b40004f0678004f05be004f04be000080fa002b
:101b5000000006000108780000000600e687470044
:101b6000889fbe008a9fbe008c9fbe008e1f78009b
:101b700082bf9f00040478008299b900f2b79f00e9
:101b80000200e000590032000fb997000200e000a7
:101b9000570032000006be007fb79700c8009000d3
:101ba00068009000808f5000040039000800780021
:101bb00052fc07000000e0003b0035000040200020
:101bc000180060000a0032008e017800a200200098
:101bd0000c00be007a0007000005be000080750002
:101be000070032008c0455008904e8000500370026
:101bf0008e0478000a0020000b002000010037004e
:101c00008e047800480190006800900002005000a7
:101c1000890f500003003100800478000a00200082
:101c20000b0020006111b800828fd2008381d200a6
:101c3000090278000c00be003800070009075700b1
:101c40004800900009004000400498000a85750093
:101c50000400320008007800d3fc07000000e00018
:101c600011003a000e00e0000f0032006148b80099
:101c7000808fd2008180d2000000780000f0a100a7
:101c80000c01d0008001d000030641004220a800d2
:101c900081864e004200a9004220ae004200a8000a
:101ca0000c86d300bdff37000080200018006000c4
:101cb0000200320008007800bbfc070000c02000d2
:101cc0001800600002003200480090006004980094
:101cd0007fb197000e0751000fb99700110009005e
:101ce0000287d80080017800010037008001eb00f6
:101cf000030078004f0778004f06be004f05be0076
:101d00004f04be006f00b1000000060000c0da0002
:101d10000000060000c0da00000006003400f800f1
:101d20003200f8000203be008202700085027200d9
:101d300002f0a6008301e800a301880000f0a600dd
:101d40008100e800910188001500b2000c0032000b
:101d5000104978000402e9001500320061014100d9
:101d6000020039003420ec0002002800610040002d
:101d7000f7ff39003220ec0000002800f4ff3700a4
:101d8000100978000482e900090032006201410074
:101d9000020039003420ec000200280062004000fc
:101da000f7ff39003220ec0000002800f4ff370074
:101db0003200f9003400f9000601be000000060000
:101dc0000300e000070032009501800001d0fe0012
:101dd0001042780005d0fe000402fb00820f520082
:101de000110032008301e9009501800001d0fe005e
:101df0001042780005d0fe000404e0000800320024
:101e0000000278001000b00000026a004260af00db
:101e100000f0a0000482d2000180b000e8ff37008b
:101e2000000020000100200000000600020ab900a6
:101e3000001bb9000200b80081004200810043008d
:041e40000000060098
:020000040000fa
:101e4400456d000070740000792000000a0d000048
:101e5400004e00006f740000204500006d7000000b
:101e640074790000206e00000d0000004b79000022
:101e740020740000752000006e680000616e000090
:101e840020640000756f0000633a00002000000029
:081e94000a0d0000000000002f
:020000040000fa
:101e9c000000fa002188a9002168a9008000200018
:101eac00001188002222ef00f0052000401188006c
:101ebc000001210030808800000121002080880072
:101ecc0050072100108088005007210000808800f6
:101edc000870ef00a0f920000700070080fb20002d
:101eec00140007002168a80021e2a8002342a800e2
:101efc000080fa00000006000200fa00000f7800d3
:101f0c001e0078000000e00003003a00a0f9200059
:101f1c0050808800020037009e00780051808800b5
:101f2c000080fa00000006000000fa000080fa00b1
:101f3c00000006000200fa00000f78001e00780076
:101f4c000000e00003003a0080fb20006080880065
:101f5c00020037009e007800618088000080fa0043
:101f6c00000006000000fa000080fa0000000600e5
:101f7c000200fa000040eb00004f78000000000067
:101f8c001180800000808000808f5000fcff3200a8
:101f9c0010808000104f7800108080000000e80056
:101fac001080880011808000a00d2100808f5000cf
:101fbc0002003a0050072100108088001e40780073
:101fcc000080fa00000006000200fa00004f7800c2
:101fdc00000000001c0007000004a2000004e00048
:101fec00fcff3a00208080001e4878002080800092
:101ffc000000e8002080880021808000500721002c
:10200c00808f500002003a000001210020808800df
:10201c002188a8000080fa00000006000000fa00e9
:10202c0011808000008080000080680000f0a70014
:10203c000000ea000000ea004f00de0000407800db
:10204c000080fa00000006000400fa0031808000d5
:10205c0011079800218080001e009000808f500096
:10206c00060031009e00900020808000008050000f
:10207c000000e900000f7800050037009e0090007a
:10208c0020808000008050004006b000000f7800d7
:10209c001e00780000f0a7000000ea000000ea0033
:1020ac004f00de00004078000080fa0000000600bf
:1020bc000000fa002180800030808000808f50006a
:1020cc0009003a001111800000102000008060000f
:1020dc0000f0a7000000ea000000ea004f00de005c
:1020ec0000407800010037000040eb000080fa004f
:1020fc00000006000400fa0001808000110798001f
:10210c00108080009e009000808f500006003100ef
:10211c009e00900010808000008050005006b0009f
:10212c00000f7800040037009e00900010808000a3
:10213c0000805000000f7800f00f20009e00780007
:10214c00808f50000200360000c0eb000200370008
:10215c001e007800004078000080fa0000000600a5
:10216c000400fa0031808000110798002180800063
:10217c001e009000808f5000060031009e009000e1
:10218c0020808000008050000000e900000f7800e3
:10219c00050037009e0090002080800000805000d9
:1021ac004006b000000f7800f00f20009e00780071
:1021bc00808f50000200360000c0eb000200370098
:1021cc001e007800004078000080fa000000060035
:1021dc000800fa002007980031079800c5ff070097
:1021ec000080fb00000f78003e0090009e0f500016
:1021fc0002003100be009000010f78000000eb00df
:10220c00100798000900370059ff0700ae00900036
:10221c00804878002e0090000000e800200798000d
:10222c001e0090000000e800100798001e009000af
:10223c009e0f5000f4ff39001e0078000080fa0059
:10224c00000006000800fa002007980031079800eb
:10225c00c3ff07000080fb00000f78003e009000d9
:10226c009e0f500002003100be009000010f78005c
:10227c000000eb0010079800090037002e009000ba
:10228c0010407800ae0090008100e8002107980013
:10229c004dff07001e0090000000e800100798009a
:1022ac001e0090009e0f5000f4ff39001e007800b5
:1022bc000080fa00000006000400fa000000eb00a9
:1022cc00000f78008bff070020479800a4ff070041
:1022dc00304798002e4090000080fb000000e0008a
:1022ec000400320051062000810f50000300320020
:1022fc00040037001e20a000040037001e00a000c0
:10230c00020037001e10a000000000003e409000ac
:10231c000080fb000000e0000400320051062000a9
:10232c00810f500003003200040037001e30a00063
:10233c00020037001e40a000000000001e007800c4
:10234c000080fa00000006000400fa001007980054
:10235c00118080001e009000008f400002003700aa
:10236c00b1f92f001e8f4000a00d21009e007800b7
:10237c00808f5000faff3e001e007800104078005d
:10238c000080fa00000006000000fa0059ff070068
:10239c000080fb000000e9004f00de0000407800e8
:1023ac000080fa00000006000000fa006cff070035
:1023bc000080fb000000e9004f00de0000407800c8
:1023cc000080fa00000006000000fa0010118000e6
:1023dc000080fa00000006000000fa0060ff070011
:1023ec000004e0001000320031808000208080006a
:1023fc00808f50000600360030808000800078000e
:10240c0020808000008050000000e90007003700a9
:10241c003080800080007800208080000080500098
:10242c004006b000010037000000eb000080fa000d
:10243c00000006000000fa002eff07000004e00078
:10244c00100032001180800000808000808f5000ce
:10245c00060036001080800080007800008080002c
:10246c00008050000000e900070037001080800059
:10247c008000780000808000008050004006b00092
:10248c00010037000000eb000080fa00000006009d
:10249c000000fa0021e2a8002342a8000080fa0004
:1024ac00000006000000fa0021e2a9002342a90066
:1024bc000080fa00000006000000fa00003a8000dc
:1024cc000080fa00000006000200fa00faff070084
:1024dc00000f78001e007800240007000004e000c4
:1024ec000200320000002800710007001e00780076
:1024fc002a0007000004e000020032000000240063
:10250c006b0007001e007800320007000004e0009a
:10251c000200320000202000650007001e00780039
:10252c003a0007000004e00002003200000820001e
:10253c005f0007001e007800420007000004e00066
:10254c000200320000042000590007001e00780031
:10255c004a0007000004e0000200320000012000e5
:10256c00530007000080fa00000006000400fa0087
:10257c00100798000040eb00004f78001e00900000
:10258c000000e00002003d0010c0b300004f7800d6
:10259c001e4078000080fa00000006000400fa00db
:1025ac00100798000040eb00004f78009e00900050
:1025bc0000002400008060000000e00002003200f7
:1025cc0010c0b300004f78001e4078000080fa0065
:1025dc00000006000400fa00100798000040eb0011
:1025ec00004f78009e0090000020200000806000ca
:1025fc000000e0000200320010c0b300004f780071
:10260c001e4078000080fa00000006000400fa006a
:10261c00100798000040eb00004f78009e009000df
:10262c0000082000008060000000e0000200320082
:10263c0010c0b300004f78001e4078000080fa00f4
:10264c00000006000400fa00100798000040eb00a0
:10265c00004f78009e009000000420000080600075
:10266c000000e0000200320010c0b300004f780000
:10267c001e4078000080fa00000006000400fa00fa
:10268c00100798000040eb00004f78001e009000ef
:10269c00700060000000e0000200320010c0b300c7
:1026ac00004f78001e4078000080fa000000060001
:1026bc000200fa00000f78009e80ea00003a8000c9
:1026cc0000806000003a88000080fa0000000600dc
:1026dc000000fa004027ef000080fa00000006001e
:020000040000fa
:1026ec0010100000ca000000800000000010000064
:1026fc000e000000800000006211000020000000ad
:10270c00800000000e10000002000000820000009b
:10271c00ffff0000da1000008800000082000000bb
:10272c000100000000001100011100001100110057
:10273c000011000011f0100000000000000000006b
:10274c00000000000000000000000000000000007d
:10275c0000000000000208000101280011291100ee
:10276c002811280011281100281118001100000050
:10277c00000000000000000000000000000000004d
:10278c00000000000000000000000200080202002f
:10279c0050115100115011005011500011501100e6
:1027ac0040110000000000000000000000000000cc
:1027bc00000000000000000000000000000000000d
:1027cc00da100200112a11000000000000000000c5
:1027dc000000000000000000a0110000020000003a
:1027ec0080000000821100001a000000820000002e
:1027fc00686a6c00747a4c00000001000002000052
:10280c000400080000100000000020002b2d230005
:10281c0030000000a2110000020000008200000045
:10282c00040000009c110000040000008000000067
:10283c00a411000002000000800000000000000055
:020000040000fa
:10284c000000fa00042eef00142eef00242eef00ef
:10285c00342eef001000200020728800542eef0060
:10286c00642eef00f06f2c00007088000080eb00ed
:10287c0080708800e0012700007188000080eb0068
:10288c0080718800e03f200000728800f013230064
:10289c0080728800303c2f00007388000c2eef00f3
:1028ac001c2eef002c2eef003c2eef004c2eef00d8
:1028bc005c2eef006c2eef000a2eef001a2eef00ac
:1028cc002a2eef003a2eef004a2eef005a2eef0080
:1028dc006a2eef00062eef00362eef00562eef007c
:1028ec00662eef000064200070708800f0f32f005b
:1028fc00f0708800e001260070718800000c200048
:10290c00f0718800e03f200070728800003c2000cd
:10291c0070738800113a8000f00b20000081600079
:10292c006004200071052000237420008049780089
:10293c0081497800824978002136800000f82f0008
:10294c00008060007001b3002036880041348000a4
:10295c00f00f2c00008060000080a0004034880044
:10296c00103a8000000178000260a0006004200092
:10297c00710520002374200080497800814978007b
:10298c00824978000080fa00000006000c00fa0072
:10299c00530007000000eb00000f78000400370024
:1029ac0020f22800801f780064f807008f87e90068
:1029bc0075fe07000004e000f9ff3a001400370030
:1029cc00b0f22800801f78005cf807008f87e900c0
:1029dc0067fd0700804078001e80e80001777800d2
:1029ec0080f32800801f780054f807008f87e900d7
:1029fc001e80e8006e40780073fd0700a0f42800ec
:102a0c00801f78004df807008f87e9001e0fe80043
:102a1c005dfe07000004e000e9ff3a00ddff37002f
:102a2c000000fa0000042300203a88004827ef0039
:102a3c004e27ef0020032000303a880000202200af
:102a4c00c03a88005a27ef006027ef006227ef009a
:102a5c006427ef006627ef006827ef006a27ef0076
:102a6c006c27ef007200200080072000a1092000d5
:102a7c0033742000804978008149780082497800bd
:102a8c000001eb006004200071052000237420007d
:102a9c008049780081497800824978000080fa00ea
:102aac00000006000200fa00000f780021028000ee
:102abc00200f2000008060001e00700020028800a3
:102acc000080fa00000006000000fa00c3e8a8002d
:102adc0000000000000000000080fa00000006006a
:102aec000000fa0056ff0700cdff070006000700a4
:102afc00e7fc0700f4ff070000022000e9ff0700d5
:102b0c000080fa00000006000000fa00014380007b
:102b1c00f0f82f00008060000040a0000043880007
:102b2c003142800080ff2f00008060000000a00078
:102b3c003042880021428000f0ff280000806000b5
:102b4c0000c0a000204288000080fa0000000600af
:102b5c000200fa00000f78009e0078007180880057
:102b6c00ffff37000000fa002016210080077800d4
:102b7c00a0172100000188000080fa000000060068
:020000040000fa
:0200000401f009
:04000800cfffff0027
:020000040000fa
:0200000401f009
:04000c007fffff0073
:020000040000fa
:0200000401f009
:04001000bfffff002f
:020000040000fa
:0200000401f009
:040014007fffff006b
:020000040000fa
:0200000401f009
:04001800efffff00f7
:020000040000fa
:0200000401f009
:04001c00dfffff0003
:020000040000fa
:0200000401f009
:04002000cfffff000f
:00000001FF
